:020000040800F2
:1000000000800020D5C90008F17C0008F37C0008BE
:10001000F57C0008F77C0008F97C0008000000006F
:1000200000000000000000000000000041C90008BE
:10003000FB7C00080000000071C90008FD7C00087E
:1000400025CA000825CA000825CA000825CA0008D4
:1000500025CA000825CA000825CA000825CA0008C4
:1000600025CA00083943000825CA0008057D000894
:1000700025CA0008D1230008F923000825CA000872
:1000800025CA0008000000004117000825CA000822
:1000900025CA000825CA000825CA000825CA000884
:1000A00025CA000825CA000825CA000825CA000874
:1000B00025CA000825CA000825CA000825CA000864
:1000C00025CA000825CA000825CA000825CA000854
:1000D00025CA0008157D000825CA000825CA0008A1
:1000E00025CA000825CA000825CA000825CA000834
:1000F00025CA000825CA000825CA0008000000001B
:100100000000000025CA00080000000025CA000801
:1001100025CA00080000000025CA000825CA0008FA
:1001200025CA000825CA000825CA000825CA0008F3
:1001300025CA0008000000000000000025CA0008D1
:1001400025CA000825CA00080000000000000000C1
:10015000000000000000000000000000000000009F
:1001600000000000000000000000000025CA000898
:1001700025CA000800000000000000000000000088
:100180000000000025CA0008000000000000000078
:10019000000000000000000000000000000000005F
:1001A000000000000000000025CA000825CA000861
:1001B00025CA000825CA000825CA0008000000005A
:1001C0000000000025CA0008000000000000000038
:0801D00025CA000825CA000839
:1001E00010B5054C237833B9044B13B10448AFF371
:1001F00000800123237010BDC8090020000000000A
:10020000CCD7000808B5034B1BB103490348AFF333
:10021000008008BD00000000CC090020CCD70008F9
:1002200000F500404FEA204070474FEA0040704719
:1002300080FB01014FEA104000EB0140704780FB5A
:1002400001014FEAD03000EB4140704730B430BC80
:100250007047000000D170474FF020014FF000427E
:100260001042A1F101014FEA5202F9D04FEA5101C7
:100270004FF0010202FA01F190FBF1F2A2EB010250
:100280004FEA6202114490FBF1F2A2EB01024FEA45
:100290006202114490FBF1F2A2EB01024FEA62020A
:1002A000114490FBF1F2A2EB01024FEA620201EB72
:1002B00002000846704700FB01F393FBF2F0704721
:1002C00000FB01F07047B0FBF1F0704701FB00F05C
:1002D0007047000081F0004102E000BF83F000435E
:1002E00030B54FEA41044FEA430594EA050F08BFD1
:1002F00090EA020F1FBF54EA000C55EA020C7FEA95
:10030000645C7FEA655C00F0E2804FEA5454D4EB11
:100310005555B8BF6D420CDD2C4480EA020281EADB
:10032000030382EA000083EA010180EA020281EA13
:100330000303362D88BF30BD11F0004F4FEA013165
:100340004FF4801C4CEA113102D0404261EB410174
:1003500013F0004F4FEA03334CEA133302D05242FA
:1003600063EB430394EA050F00F0A780A4F10104B6
:10037000D5F1200E0DDB02FA0EFC22FA05F28018F0
:1003800041F1000103FA0EF2801843FA05F35941D6
:100390000EE0A5F120050EF1200E012A03FA0EFC55
:1003A00028BF4CF0020C43FA05F3C01851EBE3717F
:1003B00001F0004507D54FF0000EDCF1000C7EEB9C
:1003C00000006EEB0101B1F5801F1BD3B1F5001FDA
:1003D0000CD349085FEA30004FEA3C0C04F10104F9
:1003E0004FEA445212F5800F80F09A80BCF1004F22
:1003F00008BF5FEA500C50F1000041EB045141EAA4
:10040000050130BD5FEA4C0C404141EB010111F4A4
:10041000801FA4F10104E9D191F0000F04BF01464F
:100420000020B1FA81F308BF2033A3F10B03B3F12D
:1004300020020CDA0C3208DD02F1140CC2F10C02BD
:1004400001FA0CF021FA02F10CE002F11402D8BF1B
:10045000C2F1200C01FA02F120FA0CFCDCBF41EAE7
:100460000C019040E41AA2BF01EB0451294330BDB6
:100470006FEA04041F3C1CDA0C340EDC04F1140493
:10048000C4F1200220FA04F001FA02F340EA03006A
:1004900021FA04F345EA030130BDC4F10C04C4F1B0
:1004A000200220FA02F001FA04F340EA0300294690
:1004B00030BD21FA04F0294630BD94F0000F83F4DA
:1004C000801306BF81F480110134013D4EE77FEABD
:1004D000645C18BF7FEA655C29D094EA050F08BF09
:1004E00090EA020F05D054EA000C04BF19461046EA
:1004F00030BD91EA030F1EBF0021002030BD5FEA2E
:10050000545C05D14000494128BF41F0004130BD55
:1005100014F580043CBF01F5801130BD01F00045A9
:1005200045F0FE4141F470014FF0000030BD7FEA1C
:10053000645C1ABF194610467FEA655C1CBF0B4617
:10054000024650EA013406BF52EA033591EA030F2E
:1005500041F4002130BD00BF90F0000F04BF002126
:10056000704730B54FF4806404F132044FF0000559
:100570004FF0000150E700BF90F0000F04BF0021D2
:10058000704730B54FF4806404F1320410F0004538
:1005900048BF40424FF000013EE700BF42004FEA33
:1005A000E2014FEA31014FEA02701FBF12F07F43B0
:1005B00093F07F4F81F06051704732F07F4208BF67
:1005C000704793F07F4F04BF41F40021704730B56E
:1005D0004FF4607401F0004521F000411CE700BFBA
:1005E00050EA010208BF704730B54FF000050AE03D
:1005F00050EA010208BF704730B511F0004502D53E
:10060000404261EB41014FF4806404F132045FEA3F
:10061000915C3FF4D8AE4FF003025FEADC0C18BFE8
:1006200003325FEADC0C18BF033202EBDC02C2F1DA
:10063000200300FA03FC20FA02F001FA03FE40EA6C
:100640000E0021FA02F11444BDE600BF70B54FF070
:10065000FF0C4CF4E06C1CEA11541DBF1CEA13554E
:1006600094EA0C0F95EA0C0F00F0DEF82C4481EAB6
:10067000030621EA4C5123EA4C5350EA013518BFD6
:1006800052EA033541F4801143F4801338D0A0FBC3
:1006900002CE4FF00005E1FB02E506F00042E0FB70
:1006A00003E54FF00006E1FB03569CF0000F18BF76
:1006B0004EF0010EA4F1FF04B6F5007F64F540741E
:1006C00004D25FEA4E0E6D4146EB060642EAC621B1
:1006D00041EA55514FEAC52040EA5E504FEACE2E1E
:1006E000B4F1FD0C88BFBCF5E06F1ED8BEF1004F21
:1006F00008BF5FEA500E50F1000041EB045170BD9D
:1007000006F0004646EA010140EA020081EA0301E0
:10071000B4EB5C04C2BFD4EB0C0541EA045170BDDC
:1007200041F480114FF0000E013C00F3AB8014F156
:10073000360FDEBF002001F0004170BDC4F100049F
:10074000203C35DA0C341BDC04F11404C4F1200520
:1007500000FA05F320FA04F001FA05F240EA02007B
:1007600001F0004221F0004110EBD37021FA04F6B1
:1007700042EB06015EEA430E08BF20EAD37070BD6B
:10078000C4F10C04C4F1200500FA04F320FA05F0CA
:1007900001FA04F240EA020001F0004110EBD370CC
:1007A00041F100015EEA430E08BF20EAD37070BD3C
:1007B000C4F1200500FA05F24EEA020E20FA04F315
:1007C00001FA05F243EA020321FA04F001F00041C4
:1007D00021FA04F220EA020000EBD3705EEA430E35
:1007E00008BF20EAD37070BD94F0000F0FD101F064
:1007F0000046400041EB010111F4801F08BF013C9D
:10080000F7D041EA060195F0000F18BF704703F0DA
:100810000046520043EB030313F4801F08BF013D61
:10082000F7D043EA0603704794EA0C0F0CEA13551D
:1008300018BF95EA0C0F0CD050EA410618BF52EAD7
:100840004306D1D181EA030101F000414FF00000DD
:1008500070BD50EA410606BF1046194652EA4306EB
:1008600019D094EA0C0F02D150EA013613D195EA5F
:100870000C0F05D152EA03361CBF104619460AD1A7
:1008800081EA030101F0004141F0FE4141F47001B1
:100890004FF0000070BD41F0FE4141F4780170BDA1
:1008A00070B54FF0FF0C4CF4E06C1CEA11541DBF06
:1008B0001CEA135594EA0C0F95EA0C0F00F0A7F808
:1008C000A4EB050481EA030E52EA03354FEA013135
:1008D00000F088804FEA03334FF0805545EA131348
:1008E00043EA12634FEA022245EA111545EA106510
:1008F0004FEA00260EF000419D4208BF964244F1A7
:10090000FD0404F5407402D25B084FEA3202B61AC5
:1009100065EB03055B084FEA32024FF480104FF499
:10092000002CB6EB020E75EB030E22BFB61A75460D
:1009300040EA0C005B084FEA3202B6EB020E75EBA0
:10094000030E22BFB61A754640EA5C005B084FEA08
:100950003202B6EB020E75EB030E22BFB61A7546D5
:1009600040EA9C005B084FEA3202B6EB020E75EBE0
:10097000030E22BFB61A754640EADC0055EA060EA1
:1009800018D04FEA051545EA16754FEA06164FEAE4
:10099000C30343EA52734FEAC2025FEA1C1CC0D190
:1009A00011F4801F0BD141EA00014FF000004FF01D
:1009B000004CB6E711F4801F04BF01430020B4F1DE
:1009C000FD0C88BFBCF5E06F3FF6AFAEB5EB030C96
:1009D00004BFB6EB020C5FEA500C50F1000041EB93
:1009E000045170BD0EF0004E4EEA113114EB5C0460
:1009F000C2BFD4EB0C0541EA045170BD41F4801133
:100A00004FF0000E013C90E645EA060E8DE60CEA3A
:100A1000135594EA0C0F08BF95EA0C0F3FF43BAF57
:100A200094EA0C0F0AD150EA01347FF434AF95EA0E
:100A30000C0F7FF425AF104619462CE795EA0C0FF2
:100A400006D152EA03353FF4FDAE1046194622E7BF
:100A500050EA410618BF52EA43067FF4C5AE50EA99
:100A600041047FF40DAF52EA43057FF4EBAE12E789
:100A70004FF0FF3C06E000BF4FF0010C02E000BF6A
:100A80004FF0010C4DF804CD4FEA410C7FEA6C5C4D
:100A90004FEA430C18BF7FEA6C5C1BD001B050EAF0
:100AA000410C0CBF52EA430C91EA030F02BF90EADB
:100AB000020F0020704710F1000F91EA030F58BF9A
:100AC000994208BF90422CBFD8176FEAE37040F0FC
:100AD000010070474FEA410C7FEA6C5C02D150EA9A
:100AE000013C07D14FEA430C7FEA6C5CD6D152EA55
:100AF000033CD3D05DF8040B704700BF844610461A
:100B000062468C461946634600E000BF01B5FFF718
:100B1000B7FF002848BF10F1000F01BD4DF808EDE8
:100B2000FFF7F4FF0CBF012000205DF808FB00BFB9
:100B30004DF808EDFFF7EAFF34BF012000205DF813
:100B400008FB00BF4DF808EDFFF7E0FF94BF012060
:100B500000205DF808FB00BF4DF808EDFFF7CEFF61
:100B600094BF012000205DF808FB00BF4DF808EDA0
:100B7000FFF7C4FF34BF012000205DF808FB00BF71
:100B80004FEA410C7FEA6C5C02D150EA013C0AD189
:100B90004FEA430C7FEA6C5C02D152EA033C02D17B
:100BA0004FF0000070474FF0010070474FEA4102DC
:100BB00012F5001215D211D56FF47873B3EB6252AF
:100BC00012D94FEAC12343F0004343EA505311F0D6
:100BD000004F23FA02F018BF404270474FF0000068
:100BE000704750EA013005D111F0004008BF6FF0A6
:100BF000004070474FF00000704700BF4A0011D21C
:100C000012F5001211D20DD56FF47873B3EB625266
:100C10000ED44FEAC12343F0004343EA505323FA72
:100C200002F070474FF00000704750EA013002D1E7
:100C30004FF0FF3070474FF0000070474FEA41021D
:100C4000B2F1E04324BFB3F5001CDCF1FE5C0DD92A
:100C500001F0004C4FEAC0024CEA5070B2F1004F74
:100C600040EB830008BF20F00100704711F0804F77
:100C700021D113F13872BCBF01F00040704741F43C
:100C800080114FEA5252C2F11802C2F1200C10FA40
:100C90000CF320FA02F018BF40F001004FEAC12324
:100CA0004FEAD32303FA0CFC40EA0C0023FA02F3C8
:100CB0004FEA4303CCE77FEA625307D150EA01339E
:100CC0001EBF4FF0FE4040F44000704701F000406E
:100CD00040F0FE4040F40000704700BF7BB972B99D
:100CE0000029BEBF00204FF0004106E008BF0028E9
:100CF0001CBF6FF000414FF0FF3000F0BDB9ADF107
:100D0000080C6DE904CE002909DB002B1ADB00F08A
:100D10004DF8DDF804E0DDE9022304B070474042FD
:100D200061EB4101002B1BDB00F040F8DDF804E033
:100D3000DDE9022304B0404261EB4101524263EB22
:100D400043037047524263EB430300F02FF8DDF892
:100D500004E0DDE9022304B0404261EB4101704749
:100D6000524263EB430300F021F8DDF804E0DDE9D3
:100D7000022304B0524263EB4303704753B94AB9AC
:100D8000002908BF00281CBF4FF0FF314FF0FF3093
:100D900000F072B9ADF1080C6DE904CE00F006F870
:100DA000DDF804E0DDE9022304B070472DE9F047E7
:100DB000089E04468846002B4BD18A42154667D9C7
:100DC000B2FA82F24AB1C2F1200701FA02F320FA24
:100DD00007F7954047EA030894404FEA154E230C65
:100DE000B8FBFEF71FFA85FC0EFB178843EA0843A1
:100DF00007FB0CF1994209D9EB1807F1FF3080F09D
:100E00001B81994240F21881023F2B445B1AA4B225
:100E1000B3FBFEF00EFB103344EA034400FB0CFC72
:100E2000A44509D92C1900F1FF3380F00781A445AE
:100E300040F2048102382C4440EA0740A4EB0C0441
:100E400000271EB1D4400023C6E900433946BDE85F
:100E5000F0878B4209D9002E00F0EB800027C6E90D
:100E6000000138463946BDE8F087B3FA83F7002F12
:100E700047D18B4202D3824200F2FA80841A61EB9E
:100E8000030301209846002EE0D0C6E90048DDE7C4
:100E900002B9FFDEB2FA82F2002A40F08F80491BCD
:100EA0004FEA154E1FFA85F80127B1FBFEFC230C13
:100EB0000EFB1C1143EA014308FB0CF1994207D9D0
:100EC000EB180CF1FF3002D2994200F2CD8084463B
:100ED000591AA3B2B1FBFEF00EFB101443EA04440E
:100EE00008FB00F8A04507D92C1900F1FF3302D206
:100EF000A04500F2B6801846A4EB080440EA0C4076
:100F00009FE7C7F1200CBB4022FA0CFE4EEA030E0D
:100F100001FA07F420FA0CF521FA0CF34FEA1E4807
:100F20002543B3FBF8F92C0C08FB19331FFA8EFA92
:100F300044EA034309FB0AF49C4202FA07F200FA6E
:100F400007F10BD91EEB030309F1FF3080F0878016
:100F50009C4240F28480A9F1020973441B1BADB28C
:100F6000B3FBF8F008FB103345EA034400FB0AFA30
:100F7000A24508D91EEB040400F1FF336BD2A24551
:100F800069D90238744440EA0940A0FB0289A4EB05
:100F90000A044C45C2464B4654D351D0002E69D06A
:100FA000B1EB0A0564EB030404FA0CFCFD40FC40C1
:100FB0004CEA0505C6E90054002747E7C2F12003C3
:100FC00020FA03F7954001FA02F021FA03F34FEA01
:100FD000154E3843010CB3FBFEF71FFA85F80EFBE4
:100FE000173341EA034107FB08F38B4204FA02F48A
:100FF00007D9691807F1FF3C2FD28B422DD9023F48
:101000002944CB1A81B2B3FBFEF00EFB103341EA48
:10101000034100FB08F38B4207D9691800F1FF3C3C
:1010200017D28B4215D902382944C91A40EA07471A
:101030003BE73746304609E70746E7E61846FBE652
:101040004145ABD2B8EB020A69EB0E0201381346F8
:10105000A4E76046E9E7184695E76746D1E7814689
:101060007CE702382C4447E7ACF1020C2B442FE715
:10107000384608E73746E9E6704700BF84B0134BAF
:10108000DA6C42F00402DA64DA6C02F004020092D4
:10109000009ADA6C42F02002DA64DA6C02F0200284
:1010A0000192019ADA6C42F00102DA64DA6C02F021
:1010B00001020292029ADA6C42F00202DA64DB6CFC
:1010C00003F002030393039B04B070470010024037
:1010D00000B583B0144B9A6C42F004029A649A6C87
:1010E00002F004020092009A9A6C42F001029A64A3
:1010F0009B6C03F001030193019B012211460B201D
:1011000008F08AFC012211460C2008F085FC01221F
:1011100011460D2008F080FC012211460E2008F037
:101120007BFC03B05DF804FB0010024072B6FEE7E2
:1011300010B5A4B03822002116A80BF0A4FC00249E
:1011400011941294139414941594442221466846E1
:101150000BF099FC204608F0BFFB012216924FF4D9
:101160008033179302231D9303211E911F922A227D
:10117000209221932293239316A807F0DFF9D0B988
:101180000F231193032312930023139314931593A6
:10119000042111A807F088FC78B948F201030093F4
:1011A000002301934FF000530F93684607F0A4FD0E
:1011B00028B924B010BDFFF7B9FFFFF7B7FFFFF75D
:1011C000B5FF000000B587B00023059307F068F96C
:1011D000FFF7AEFF01F0D8FB00F0DAFDFFF74EFF9E
:1011E00001F078F9914806F0EBFF00F039F900F0D2
:1011F000BFF904F0B9FC00F0B5FC38B98C4AB2F87C
:1012000054301BB243F08003A2F85430FFF760FF64
:1012100005F0F2FD02F0EEFF854B0022A3F8182244
:1012200060E0834B0022DA82824A0C3302F1300103
:10123000166855689468D0681E605D609C60D860D0
:10124000103210338A42F3D11168196092889A8063
:1012500000F086FD4BE0764B00221A8300F080FD03
:101260004AE0734B0022A3F80C2200F061FD49E034
:1012700001F0A8F86E4B00221A82A3F8542005F062
:1012800011F944E06A4B0022A3F81E2200F00EFC84
:1012900045E0674BB3F86820A3F896220022A3F834
:1012A0009C2200F045FD40E00123634A1370604A30
:1012B00000219182614A1370614A1370614801F004
:1012C000E7FB06F043F906F067FC06F0A3F95E4B76
:1012D0001B78012B3BD05D4B1B78012B00F09E80CF
:1012E00002F088FF524BDB8A1BB2012B99D0504B86
:1012F0001B8B1BB2012BAED04D4BB3F80C321BB283
:10130000012BAED04A4B1B8A1BB2012BB0D0484BED
:10131000B3F81E321BB245F255529342B2D0444B41
:10132000B3F89C321BB2012BB3D0414B5B8A1BB28A
:10133000012BB9D03E4B9B8A1BB2012BB4D03C4B46
:10134000B3F85430C3F30B03002BBAD0ACE73E4BD9
:1013500000221A7005F028F9354BB3F84C00B3F8A9
:10136000421009B200B201F01BF9394A1388013367
:101370001BB21380322B0BDD134600221A80334B35
:1013800001221A702A4BB3F818321BB293421ED0B6
:1013900005F0EEFA2F4A136801331360092B9ADD2A
:1013A000002313602C4A1380214BB3F802321BB286
:1013B000012B2DD01E4BB3F854301BB2002B8AD01A
:1013C000254A13881BB243F00203138083E7234BA3
:1013D0001A68136823F040031360E023009300258C
:1013E000019501240394029469464FF0904007F060
:1013F00099FF1023009301950394029469464FF0DE
:10140000904007F08FFF0A4B0522A3F81A22BFE78E
:1014100013881BB243F001031380CBE700F00AF9F5
:101420000A4B00221A7004F01BFF59E770270020B6
:10143000500E00200C070020380E00207D1F0020D9
:101440007C1F0020941F0020300B0020310B002057
:10145000AC140020E40900206E140020E01F0020DE
:1014600010B59AB00024179418941994202221469C
:101470000FA80BF008FB3C22214668460BF003FB4B
:1014800038484FF0A04303604FF44033436084601A
:10149000C4600461012343610822826104774377B9
:1014A000036280F82430C462046380F83840C46367
:1014B00080F8404009F01CF9002847D11AA9002300
:1014C00041F80C3D27480AF0A3FA002841D1264BE9
:1014D0000F930623109311937F23129304231393E6
:1014E000002314930FA91F4809F026FA002833D1CE
:1014F0001E4B009309230193032302937F2303933D
:101500000423049300230593012208928DF82430CC
:101510008DF825308DF8263080220A920B928DF8B6
:10152000303069460F4809F05FFFC0B90D4C7F218C
:10153000204609F0A7FD7F21204609F0F3FD024671
:101540007F21204609F0F9FD1AB010BDFFF7EEFD2E
:10155000B4E7FFF7EBFDBAE7FFF7E8FDC8E7FFF7F1
:10156000E5FDE3E7FC1E00201000C010020030047F
:1015700010B590B03C22002101A80BF084FA2A4853
:101580002A4B03604FF44033436000238360C36001
:10159000036143610422826103774377012202627F
:1015A00080F82430C362036380F83830C36380F866
:1015B000403009F09DF880BB1D4B01930923029335
:1015C000032303937F2304930423059300230693AB
:1015D000012209928DF828308DF829308DF82A30B3
:1015E00080220B920C928DF8343001A90E4809F03C
:1015F000FBFEA8B90C4C7F21204609F043FD7F215A
:10160000204609F08FFD02467F21204609F095FD16
:10161000204609F0D3FD10B010BDFFF787FDCBE7E2
:10162000FFF784FDE6E700BF901E00200001005098
:101630000400600810B50C4C204609F05BFC2368E0
:10164000D3ED107AF8EE677A9FED087A67EE877A25
:101650009FED077A67EE877A064BC3ED007A064B5B
:101660000022A3F8562010BDFC1E00200919B1422B
:1016700000008039F0090020500E002038B52C4BB6
:10168000B3F89A321BB2002B39D1294BB3F868104A
:1016900009B2B3F8962212B2891ACD17AC03B3F887
:1016A000982212B2D317880344EA9141FFF716FB40
:1016B00000B21F4B5B8D1BB2002B35D0404200B2F5
:1016C0001B4BA3F85A001A4CB4F85A30194A118827
:1016D00089B2194D35F8111008B2118889B225F870
:1016E0001130118800211180144A1168091A01FA79
:1016F00083F3136013681BB2A4F8523038BD0C4B4F
:10170000B3F8961209B2B3F8682012B2891ACD174D
:10171000AC03B3F8982212B2D317880344EA91417C
:10172000FFF7DCFA00B2C4E7014BA3F85A00CAE79E
:10173000500E0020FC090020F4090020F8090020C8
:1017400008B50A4B1B685B6813F0400F00D108BD59
:1017500040214FF0904007F0C0FE4FF0A0421368C8
:1017600043F02003136002F081FBF0E7FC1E002031
:101770000022BD2A23DC30B402F1B90149004B1C20
:101780000F4830F813301BB202F1B8046400651C36
:1017900030F815502DB25B1B9B0230F8111009B2C6
:1017A00030F8140000B2091A93FBF1F3054941F82F
:1017B0002230013212B2BD2ADEDD30BC70477047E4
:1017C000500E00203C0B002030B44E4BB3F8E032FA
:1017D0001BB283425ADC4B4BB3F8D8351BB2834261
:1017E00054DDBE21002400E019460B1B012B0FD055
:1017F000631803EBD37343F34F0303F1B8025200B2
:10180000404D35F8122012B28242EDDA1C46ECE768
:1018100004F1B8035B003B4931F8132012B2801A7F
:10182000394A52F8242002FB00F2013331F8130048
:1018300000B200EBA22003B2344CB4F900203449CA
:1018400031F9125021F812300132514202F07F0278
:1018500001F07F0158BF4A4222802E490A68521B7C
:1018600013440B6043F3CF132B4A1380C31A002B8E
:10187000B8BF5B42B3F5005F3BDC224BB3F87E326E
:10188000C01A00B2254B188030BC70471D4BB3F80E
:10189000E0321BB2834209DD1A4BB3F8E0321BB2CF
:1018A000C01A10F5804FC6DA1D48C4E7154AB2F8D1
:1018B000DA351BB2B2F8E21209B25B1A9B02B2F837
:1018C000D81509B2B2F8E04224B2091B93FBF1F338
:1018D000B2F8D81509B2401A03FB00F0B2F8DA35B5
:1018E0001BB203EBA020B0F5004FA4DB47F6FF705E
:1018F000A1E70C4A138801331380084BB3F90000A9
:10190000C2E700BF500E00203C0B0020FE09002063
:10191000000A0020040B0020000B0020080B002010
:1019200000C0FFFFEC0900202DE9704883B0534B45
:10193000B3F818321BB2012B14D0514B1A6811683E
:10194000504B1B68994257DD4F4B19684F4B1B6832
:10195000994254DA4C490B6803F1FF1303F57F43B6
:101960000B604CE04A4B1A684A4C4FF480230193B9
:101970004FF40043009323460021084605F00AF97E
:101980002268D5173D4EB6F84E0200B2C11702FBD1
:1019900001F300FB0533A2FB00011944B6F8502205
:1019A00014B2E517EE034FEAC43B46EA544CBBEBD6
:1019B00004026CEB050314461D46002A73F1000671
:1019C00015DB220A42EA05622B12FFF787F904466B
:1019D0008903314B1B681A68D317A00341EA94416D
:1019E000FFF77CF900B2254BA3F84C0042E012F15E
:1019F000FF0443F10005E4E7234B19681960224B0B
:101A00001B6812689B1A254A13601268244B1B68D6
:101A10001B68D21AD5172349A2FB01BC01FB05CCD8
:101A20004FEA1B6242EA0C221F4B1A601D681A4BD8
:101A30001B681C682046E1174E01620146EAD46328
:101A4000121B63EB01039C0044EA92749600321867
:101A500044EB0103D80040EA5270D1000A46034625
:101A6000A803A914FFF73AF9FFF7AEFE00B2034B43
:101A7000A3F84C0003B0BDE8708800BF500E0020F2
:101A800010090020901F0020B8140020CC1F002057
:101A900064140020A814002014090020E809002084
:101AA0000C090020006CDC02A4140020002310E0CC
:101AB00099B2B8335B0001EB810202EB02120A44D7
:101AC00012B2194820F81320013320F813204B1CC0
:101AD0001BB2BE2BECDD0022BD2A23DC30B402F1A8
:101AE000B90149004B1C104830F813301BB202F109
:101AF000B8046400651C30F815502DB25B1B9B02C6
:101B000030F8111009B230F8140000B2091A93FB32
:101B1000F1F3064941F82230013212B2BD2ADEDD6E
:101B200030BC7047704700BF500E00203C0B0020B7
:101B300082B000230193009300930AE0019B0133DC
:101B40000193019A42F20F739A42F7DD009B013331
:101B50000093009B834202DA00230193F1E702B075
:101B60007047000038B52D4B1A6A00245C639C63F3
:101B7000DC631C622A4A11684A6822F040024A600B
:101B800028494A6942F480524A61DC639C635C6381
:101B900045F255521A6242F21070FFF7C9FF204613
:101BA0002546214613E01E4B1B681A6812F0400FB1
:101BB000F9D040221A601A4B1B68D3F880301844C1
:101BC000194B1B68D3F880301D44013189B21F299D
:101BD000E9D94009154B18606D09154B1D60A0F53A
:101BE000E760B0F5C87F08D8B5F5E76F12DB40F6BF
:101BF000C8039D4210DC012000E00020094A53691F
:101C000023F480535361064B1A68536843F0400332
:101C1000536038BD0020F1E70020EFE7002C0140C1
:101C2000FC1E002000040048901E0020701F0020B1
:101C3000881F002010B586B0044607F0F9F901238B
:101C400002930493E40A03940023019305A901A8D5
:101C500007F0F2FA044607F003FA14B9012006B0BF
:101C600010BD0020FBE7F8B505460C4617461146A7
:101C7000FFF7E0FF034608B91846F8BD07F0D8F9AA
:101C80000026BE420ED2D4E900232946002007F0E8
:101C900025FA58B92A8823889A4209D10835083488
:101CA0000136EEE707F0DCF90123E5E70023E3E77F
:101CB0000023E1E7002393420BD210B430F8134025
:101CC00021F8134001339342F8D301205DF8044B0F
:101CD000704701207047000010B5124C4FF400729D
:101CE00021461148FFF7E6FFA4F500744FF4807217
:101CF00021460E48FFF7DEFF0023A4F84630A4F883
:101D00004230B4F84C20A4F84820A4F86032A4F87B
:101D10000C32A4F810322382A4F854300120A4F825
:101D2000A00210BD5010002000F0010800F80108CA
:101D300008B5012383F31088802207490748FFF77D
:101D400092FF20B9002383F31088012008BD0020F2
:101D500080F31088FAE700BF5010002000F001085F
:101D600008B5012383F31088402207490748FFF78D
:101D70007AFF20B9002383F31088012008BD0020DA
:101D800080F31088FAE700BF500E002000F8010829
:101D90002DE9F84FFFF7A0FFD34BB3F800321BB289
:101DA000D24AB2F90020934240F0C5820125CE4BC1
:101DB0001B881BB2CE4AB2F9002093420CD0CA4C09
:101DC0004FF40072CA4920460AF052FE0025A4F8DA
:101DD0000C52C84B01221A70C74AC84B1A60C84B34
:101DE0004FF460011960C74B1B681B68C3F1FF13F8
:101DF00003F57F43D31AC44A1360FFF7B9FCC34A03
:101E0000B94BD3F8A072D3F8A462D3F8A842D3F8A0
:101E1000AC02176056609460D060D3F8B072D3F80B
:101E2000B462D3F8B842D3F8BC021761566194612A
:101E3000D06100225A8345F610219980B3F806122A
:101E4000D980B3F808121981B3F80A125981A3F89E
:101E50006022B3F8483213F4004F05D1A24BB3F817
:101E600048321BB2192B03DD9F4B1022A3F84822E6
:101E7000A74B40F6FF721A60A64B4FF400621A603F
:101E8000994BB3F8482211B201228A40013AA24983
:101E900093A7D7E90067C1E90067A049002008803F
:101EA00007EE902AF8EEE77AB3F84A2212B207EE6C
:101EB000102AB8EEC77AC7EE876AB3EE0E7A66EEDE
:101EC000876A9FED977A86EE876AF6EE006A36EEAD
:101ED000266ABDEEC66A934A16EE101A1180B3F850
:101EE0004A2212B206EE102AB8EEC66AC7EE865A29
:101EF0009FED8D6A65EE865A85EE876A36EE266A14
:101F0000BDEEC66A894A16EE101A1180B3F84A224D
:101F100012B206EE102AB8EEC66AC7EE865A9FEDD8
:101F2000846A65EE865A85EE876A36EE266ABDEECD
:101F3000C66A804A16EE101A1180B3F84A2212B20D
:101F400006EE102AB8EEC66AC7EE865A9FED7A6A88
:101F500065EE865A85EE876A36EE266ABDEEC66A5B
:101F6000764A16EE101A1180B3F84A2212B206EE23
:101F7000102AB8EEC66AC7EE865A9FED716A65EE02
:101F8000865A85EE876A36EE266ABDEEC66A6D4AC7
:101F900016EE101A1180B3F84A2212B206EE102A79
:101FA000B8EEC66AC7EE865A9FED676A65EE865A36
:101FB00085EE876A36EE266ABDEEC66A634A16EE7D
:101FC000101A1180B3F84A2212B206EE102AB8EEA7
:101FD000C66AC7EE865A9FED5E6A65EE865A85EE42
:101FE000876A36EE266ABDEEC66A5A4A16EE101A9F
:101FF0001180B3F84A2212B206EE102AB8EEC66A71
:10200000C7EE865A9FED546A65EE865A85EE876A5A
:1020100036EE266ABDEEC66A504A16EE101A1180D8
:10202000B3F84A2212B206EE102AB8EEC66AC7EE1C
:10203000865A9FED4B6A65EE865A85EE876A36EEC4
:10204000266ABDEEC66A474A16EE101A1180B3F82A
:102050004A2212B206EE102AB8EEC66AC7EE865AB7
:102060009FED416A65EE865A85EE876A36EE266AEE
:10207000BDEEC66A3D4A16EE101A1180B3F84A2228
:1020800012B206EE102AB8EEC66AC7EE865A9FED67
:10209000386A65EE865A85EE876A36EE266ABDEEA8
:1020A000C66A344A16EE101A1180B3F84A2212B2E8
:1020B00006EE102AB8EEC66AC7EE865A9FED2E6A63
:1020C00065EE865A85EE876A36EE266ABDEEC66AEA
:1020D0002A4A16EE101A1180B3F84A2212B24FE0C3
:1020E0000EE1100EE1182041500E002000000020EB
:1020F00000070020350B0020FFFF1F00D41F002029
:10210000901F002010090020CC1F00207014002018
:10211000280B00202C0B0020400E00200A0B002072
:102120000000B443180B002000003442200B0020B4
:1021300000007042220B00200000B442240B00205B
:102140000000F0420C0B0020000016430E0B002094
:1021500000003443100B002000005243120B0020FB
:1021600000007043140B002000008743160B002072
:10217000000096431A0B00200000A5431C0B002012
:1021800006EE102AB8EEC66AC7EE865A25EE876AB2
:10219000C6EE077A77EEA66AFDEEE66A16EE902A9C
:1021A00011B2704A1180B3F84C2212B26E4802602C
:1021B000026802FB01F26D4981FB02011144D21752
:1021C000C2EB21226A490A60B3F804321BB2032B26
:1021D00000F0C280674B0022A3F84620654C4FF008
:1021E0000008A4F842805023A383A4F81A82A4F81C
:1021F00018824FF4A573A4F84E3242F24E73A4F83D
:102200005032A4F81280A4F8148040F6CC43A4F80D
:1022100092324FF40053A38640F23333A4F84A308D
:10222000DFF89891D9F8003041F2883AC3F800A05D
:10223000514B1A68514911601B681F68F917B4F8AF
:102240004E620FFA86FB4FEAEB7C07FB0CF30BFBAD
:102250000133A7FB0B671F443902B4F8502212B2B6
:102260001203D317300241EA1661FEF737FDDFF89B
:1022700050B1DBF800301860414B1B684FF4FA7224
:102280001A60404B1B68C3F800A03F4B1B6844F624
:1022900020621A60D9F800301868FEF76DF906461A
:1022A0000F46DBF800301868FEF766F902460B4669
:1022B00030463946FEF7F4FAFEF7C0FC07EE100A86
:1022C000324B1860DFED326AC6EE877AFDEEE77AB0
:1022D000304BC3ED007AA4F81C82A4F840802E4E47
:1022E0004FF47A61304600F0BBFD46F2A8112B484E
:1022F00000F0B6FD46F2A811294800F0B1FD4FF4F8
:102300007A61284800F0ACFD4FF47A61264800F06D
:10231000A7FDB4F880321BB2F363B4F882321BB26B
:102320003364A4F854829FED210A214800F032FB67
:102330002846BDE8F88F0F4C4FF480621D4904F524
:1023400000700AF095FBFFF7B1FB0025A4F80C52D2
:10235000194B01221A702AE5064B4FF48042A3F86C
:1023600046203BE71E0B00206C1B0020B7600BB61D
:10237000701B0020500E00201809002055F5170092
:102380000009002004090020080900206C1F00201B
:10239000000080469414002030210020F02200200C
:1023A00080210020A8220020002200200000FA4402
:1023B000941F002000000020350B0020140900208D
:1023C0001C090020014B00221A707047350B0020B9
:1023D000084B1B6C1A6812F4007F09D05A6842F44B
:1023E00000725A60034B1A68136823F001031360EC
:1023F000704700BFA42000201D4B1B6C1A6812F40C
:10240000005F2BD01B490A6801320A60596841F409
:1024100000515960184948788B781B0203EB004340
:10242000C9780B4415490B60154B012119704FF009
:1024300090414B6943F010034B61B2F57A7F0DDD9B
:102440000C4B40F2E9321A600B4B1B78A62B05D0DF
:102450000C4BB3F804321BB2032B00D07047094A6F
:10246000B2F854301BB243F40063A2F85430F5E7DD
:1024700044200020BC140020C0140020B814002008
:10248000B1140020500E0020064A11680B6823F09A
:1024900001030B60136804225A601A6842F00102BB
:1024A0001A607047A4200020014B00221A60704778
:1024B000B4140020054B1B683BB1054AB2F85430F8
:1024C0001BB243F40063A2F854307047B4140020E8
:1024D000500E00202DE9F04188B02E4BDA6C42F00E
:1024E0000102DA64DA6C02F001020092009ADA6CFE
:1024F00042F00202DA64DA6C02F002020192019AFE
:10250000DA6C42F00402DA64DB6C03F00403029339
:10251000029B10230393012404940694059403A9B9
:102520004FF0904006F0FEFE4FF482530393049464
:1025300002250695059403A94FF0904006F0F2FE9F
:102540004FF4006303934FF00008CDF81080069518
:102550000594114E03A9304606F0E4FE4FF480576F
:10256000039704940695059503A9304606F0DAFE14
:1025700042463946304606F0ABFF4FF480430393A2
:1025800004940695059403A9044806F0CBFE08B010
:10259000BDE8F08100100240000400480008004837
:1025A00038B5744B1B78DBB2012B38D0724A938D4F
:1025B0001BB223F040039385704B1B78DBB2012BD9
:1025C00034D06D4A938D1BB223F0800393856A4B00
:1025D000B3F85430C3F30B03002B2ED0664A938D0F
:1025E0001BB243F002039385634BB3F8543013F4EA
:1025F000704F29D0604A938D1BB243F0010393853D
:102600005D4BB3F802321BB22BBB5B4A938D1BB2FE
:1026100023F0040393855A4B00221A6038BD564AB2
:10262000938D1BB243F040039385C5E7524A938DC7
:102630001BB243F080039385C9E74F4A938D1BB2C9
:1026400023F002039385CFE74B4A938D1BB223F00F
:1026500001039385D4E70C460546474BB3F8480081
:10266000B3F84C1009B200B203F06EF9E0B9424A77
:10267000938D1BB223F0040393853F4B5B8E1BB2FB
:10268000012BCBD13E4A136801331360632BC5DDA8
:10269000134665221A603B4A136801331360092B05
:1026A000BCDD0023136013E0334A938D1BB243F06B
:1026B00004039385E1E7591C334A32F8110022F8EC
:1026C0001300324A32F8111022F8131001331BB2F2
:1026D000062BF0DD2C4BDD812C4AD4811A885988D9
:1026E00009B201FA82F19A8801FA82F2D98802FAD3
:1026F00081F2198902FA81F15A8901FA82F19A89E3
:1027000001FA82F2DB8902FA83F3002B08DB43F340
:10271000CF031F4A13801F4B01221A70002210E0C2
:102720000733F4E7184B33F812301BB21849098805
:1027300009B25B1A0A2BD4BF0023012363BB013209
:1027400012B2072A2BDC124B1B881BB20E4931F840
:10275000121009B25B1A002BE4DB0D4B1B881BB275
:10276000094931F8121009B25B1A0A2BD4BF0023B1
:102770000123E3E7EB140020500E0020EA140020B0
:10278000F0140020EC140020D8140020C414002001
:10279000E8140020D41400206E4B00221A706E4BF7
:1027A0005B8C1BB240F23232934203DC6A4B40F244
:1027B00033325A84684B5B8C1BB242F2666293429E
:1027C00001DD654B5A84644B9B8C1BB2634A934278
:1027D00003DA614B4DF69A129A845F4B9B8C1BB2C5
:1027E0005F4A934203DB5C4B4FF6CD429A845D4BCC
:1027F0001A8812B2584B5B8C1BB29A4242DB594B7F
:102800005A8812B2544B5B8C1BB29A423ADB554B3E
:102810009A8812B2504B5B8C1BB29A4232DB514BFE
:10282000DA8812B24C4B5B8C1BB29A422ADB4D4BBE
:102830001A8912B2484B5B8C1BB29A4222DB494B7D
:102840005A8912B2444B5B8C1BB29A421ADB454B3D
:102850009A8912B2404B5B8C1BB29A4212DB414BFD
:10286000DA8912B23C4B5B8C1BB29A420ADB394BC1
:102870001B78DBB2012B05D1374BB3F802321BB208
:10288000012B5DD0374B1A8812B2334B9B8C1BB295
:102890009A423FF7C3AE334B5A8812B22E4B9B8CF1
:1028A0001BB29A423FF7BAAE2E4B9A8812B22A4B0D
:1028B0009B8C1BB29A423FF7B1AE2A4BDA8812B218
:1028C000254B9B8C1BB29A423FF7A8AE254B1A8929
:1028D00012B2214B9B8C1BB29A423FF79FAE214B09
:1028E0005A8912B21C4B9B8C1BB29A423FF796AE90
:1028F0001C4B9A8912B2184B9B8C1BB29A423FF721
:102900008DAE184BDA8912B2134B9B8C1BB29A42D4
:102910003FF784AE0F4B1B78DBB2012B7FF47EAE0A
:102920000D4BB3F802321BB2012B7FF477AE0E4B86
:102930001A88094B1A8601220C490A709A826DE6A0
:10294000094B1A88044BDA85012209490A709A82D8
:1029500098E700BFD4140020500E00209AD9FFFF42
:10296000CEFCFFFFC4140020E8140020EA1400206D
:10297000EB1400200023024A1370024A13707047C0
:10298000EA140020EB14002008B5052007F032F807
:1029900008BD70474FF4405303604FF480534360C9
:1029A00005238360044BC36080ED040A00230362A7
:1029B00080F82C30704700BFCDCC4C3E00000000AA
:1029C000D0B50446049821606260A36084ED030AD8
:1029D000824203DC814202DA084600E0104601230D
:1029E00084F82C3000232362D4ED047A80EE277A19
:1029F000254BB3F9003007EE903AF8EEE77A67EE30
:102A0000277AFDEEE77AC4ED077A8B1A03EBD373CE
:102A10005B106361114401EBD1714910A161411A4E
:102A200007EE901AB8EEE77A07EE903AF8EEE77AFA
:102A3000C7EE277A17EE900AFDF7B0FD41EC100BB8
:102A40000AF02CF857EC106B104BB3F9000007EEAE
:102A5000900AF8EEE77A17EE900AFDF79FFD02461E
:102A60000B4630463946FDF7F1FD05A3D3E90023B7
:102A7000FDF716FFFEF79AF86062D0BDAFF3008055
:102A800000000000FA2109401E0B0020100B00205E
:102A9000002380F82C3070472DE9F843454BB3F8FC
:102AA000602213B24FF43D6202FB03F2424981FB04
:102AB0000231D317C3EB61131AB203F53D639BB226
:102AC000B3F5BD5F64D813463C4A1360394BB3F885
:102AD00060321BB29B03384A82FB0312DB17C3EB45
:102AE0006213374E3360374C00232360364D28681D
:102AF00080B204F0E7F88046286880B204F0F4F869
:102B0000814641462068FDF79AFB074649463068F2
:102B1000FDF795FB38442D4F386020684946404208
:102B2000FDF78DFB044641463068FDF788FB2044E5
:102B3000274B1860274BD3ED000A9FED277A20EE34
:102B4000877AD7ED007AF8EEE77A67EE877A06EEB5
:102B5000900AF8EEE60A60EE870A9FED200AC0EEC2
:102B6000800A87EE800A1E4805F05BFB2B681BB2CB
:102B70001C4A13801C4AB2F9002093420BDB1B4A0B
:102B8000B2F9002093420BDD9B1A164A138007E02E
:102B90000A4B1B6898E7154A12881344114A1380A0
:102BA000064B1A680F4BB3F90010114803F008F9EF
:102BB000BDE8F883500E00201F85EB5190140020D3
:102BC000E8190020E419002050140020DC1900202E
:102BD000E0190020F00900203ACD133F00005245D3
:102BE00070270020382300200A0B00201E0B002035
:102BF000002C0140000000002DE9F843044608982D
:102C00000139052962D8DFE801F0033E454C535AEB
:102C1000C3F55261091A49105E18851940F67533DB
:102C20009E4258DC26EAE67640F675339D4255DC36
:102C300025EAE57540F67533994252DC21EAE171E7
:102C4000794BB3F81A321BB21BB9784A1360784A31
:102C50001360754BB3F81A321BB2042B44D0724B7D
:102C6000B3F81A321BB2052B3ED06F4BB3F81A32B1
:102C70001BB2042B48D0E163A563666345F255534C
:102C80002362BDE8F88302F55265ED1A6D10A91AAA
:102C90005E18C3E700F55261891A491055182E1ABB
:102CA000BCE7C0F55266164476108519A91AB5E737
:102CB000C2F552661E447610F11A8D18AEE703F580
:102CC000526505446D102E1AF11AA7E74FF4D26130
:102CD0000D460E46A2E740F67536A5E740F6753577
:102CE000A8E740F67531ABE7514B1A6804321A6019
:102CF0001B68B3F57A7FB8DD4D4B00221A604B4A52
:102D0000136801331360B0E74A4B1A6801321A6046
:102D10001B68002B23DB474B00221A60464B1B68C5
:102D2000632B18DC444A1068444BB3F90010494245
:102D3000434B43F8201011684248B0F9000040426C
:102D4000643143F8210012683F49B1F9001049424B
:102D5000C83243F82210384A136801331360334BEA
:102D60001B68C82B04DC40F61F510D46012682E784
:102D7000334ED6F88C01FDF7FFFB804601F1004988
:102D8000B068D6F88C31C01AFDF7F6FB02460B4648
:102D900040464946FDF784FD41EC100B09F0DAFE90
:102DA00053EC102B1EA1D1E90001FDF779FD8046FF
:102DB0008946264BC3E9008902460B460020244978
:102DC000FDF76EFD234BC3E90001174D0023A5F865
:102DD0001A32D6F88C2102EB42021F4B93FBF2F31E
:102DE0001BB2A5F8403200221C4B40464946FDF775
:102DF0002DFC06460F46B5F8400200B2FDF7BCFBBD
:102E000002460B4630463946FDF720FCFDF7F6FE3C
:102E100000B2A5F8420240F61F510D4601262AE7EE
:102E2000F168E388B5F8043F500E0020F81900203F
:102E3000141A0020A8190020EC190020C61900203F
:102E4000F8140020CA190020CE190020B019002063
:102E50000000F0BFB819002000366E0100408F401E
:102E6000002343648361C36143638163704700004F
:102E70001368002B7AD02DE9F003411A9161536950
:102E8000994206DA5B42994203DD01235360002335
:102E90009361536BD66BB34202DA116C8B420ADC3E
:102EA000B34202DB9169002905DB116C8B4211DC16
:102EB0009369002B0EDDD368B3F57A7F61DD9169EC
:102EC0003D4880FB0340DB17C3EB6013506C03FBF2
:102ED000010353649769956805FB07F5364B83FB3F
:102EE0000513EC17C4EB63141462D368B3F57A7F4F
:102EF0004DDD536C642000FB03F0936B90FBF3F00B
:102F0000C117C2E90A01D2E90A01B0F1004F71F11B
:102F1000000344DB6FF000400021C2E90A01106B9E
:102F2000136900EBC000D169791A014401FB03F178
:102F3000224B83FB0103C917C1EBA3131363916AEF
:102F40000C44234453639E4204DA5663936B03FBA1
:102F500006F65664516B136C994204DA5363916B15
:102F600001FB03F35364BDE8F003704753649361BE
:102F7000D3615363136200200021C2E90A01136385
:102F800070479069516C00FB03135364A2E7506CC7
:102F9000936B90FBF3F0C117C2E90A01B3E7DFF8C6
:102FA00020804FF0FF39404571EB0903B7DA404606
:102FB0004946C2E90A01B2E71F85EB51D34D6210C1
:102FC000010000802DE9F04383B0AC4BB3F804322C
:102FD0001BB2012B23D0A94BB3F804321BB2022B36
:102FE00010D0A64BB3F804321BB2032B0AD0A34B6C
:102FF000B3F804321BB2042B42D0A04B0022A3F83A
:1030000042200CE09D4AB2F87032A2F86E329C4B1E
:103010005B6BB2F86E120B441BB2A2F84230974BB6
:10302000B3F854321BB2012B31D0944BB3F8543265
:103030001BB2032B00F0FF80904BB3F854321BB24D
:10304000042B00F0A8818D4BB3F8422012B2B3F8E4
:1030500080321BB29A4204DD884BB3F88022A3F879
:103060004220864BB3F8422012B2B3F882321BB230
:103070009A4225DA814BB3F88222A3F842201FE05E
:103080007F4BB3F934207D4BA3F84220C7E77B4B3D
:103090000122A3F80222A3F804227A4A1388591CB9
:1030A0001180322B02D9134600221A80754B1B88DF
:1030B000192B40F2BA80714B4FF44862A3F84220BA
:1030C000714D4FF48042EA63704B2B64704CE263A5
:1030D00023646A4EB6F84200B6F84E102A4609B28A
:1030E00000B2FFF7C5FEB6F89412224609B20020DE
:1030F000FFF7BEFE6B6B626B02FB02F203FB032366
:1031000000EE103AB8EEC00A09F000FEDFED617A79
:1031100087EE800AF7EE007AB4EEE70AF1EE10FAD5
:1031200000F17981584B5A6B40F6753303FB02F37B
:10313000002BC0F285819B13574A1360544B5A6B86
:1031400040F6753303FB02F3002BC0F27D819B1325
:10315000524C2360524A13685B421360514D2868F9
:1031600080B203F0AFFD8046286880B203F0BCFD5A
:10317000814641462068FDF762F80546464F4946BC
:103180003868FDF75CF82844474E306020684946AF
:103190004042FDF754F8044641463868FDF74FF8C1
:1031A0002044424D2860424BD3ED000A9FED417A06
:1031B00020EE877AD6ED007AF8EEE77A67EE877A26
:1031C00006EE900AF8EEE60A60EE870A9FED3A0AEC
:1031D000C0EE800A87EE800A384805F022F82C6895
:1031E00037493068FDF724F82A6813185B10101A65
:1031F0004010002C40F32C8101210028C0F22A81CC
:10320000002BC0F229812F4A11602F4A11802F4ACA
:1032100014602F4A13602F4A1060009022462E48F7
:10322000FFF7EAFC03B0BDE8F083144B4FF28032A5
:10323000A3F8422044E7114B0122A3F80222A3F88D
:103240000422264B1B7833B9254A13800B4AA2F877
:10325000C030A2F8C230224B1B881BB2012B69D0B0
:10326000022B00F08980002B3CD0044A0023A2F8F6
:103270005432A2F84230194A137021E7500E002050
:10328000A8220020181A0020F022002000C0FFFF12
:103290008021002000008046E8190020E419002069
:1032A0003009002050140020DC190020E019002013
:1032B000F00900203ACD133F00005245702700204E
:1032C00068BB0100D81900206C14002008210020E0
:1032D000782100201C210020002C0140480E0020F5
:1032E000AE1400205D4B01221A705D4B4FF400526A
:1032F000A3F84220B3F850301BB2B3F54D7F06DB84
:10330000574AB2F8C03028331BB2A2F8C030544B31
:10331000B3F850301BB242F2333293427FF7D0AE53
:10332000504A138801331BB213804D4B0022A3F87F
:10333000C220C5E64A4B4FF46042A3F84220B3F8DE
:1033400050301BB242F23232934206DC444AB2F8A9
:10335000C23028331BB2A2F8C230414BB3F8503010
:103360001BB240F2323293423FF7AAAE3D4A138875
:1033700001331BB21380A3E6394BB3F850301BB2B4
:1033800040F2323293423FF79BAE364A1388013304
:103390001BB2138094E6324B0122A3F802220222D0
:1033A000A3F80422304A138801339BB21380632BA5
:1033B00004D82B4B0022A3F8462081E6B3F5167FF4
:1033C00005D2274B4FF48052A3F8462078E640F20E
:1033D0004B42934204D8224B0022A3F846206FE6CA
:1033E000B3F5C86F05D21E4B4FF47042A3F84620C8
:1033F00066E640F2A362934204D8194B0022A3F878
:1034000046205DE60023184A1380154AA2F854327C
:10341000A2F8463054E6D5ED0D7AF8EEE77A67EE7D
:10342000807AFDEEE77AC5ED0D7AD4ED0D7AF8EEEF
:10343000E77A27EE800ABDEEC00A84ED0D0A71E638
:1034400003F57F533F3376E603F57F533F337EE644
:103450000021D2E60231D3E60431D4E6480E002042
:10346000500E0020AE140020181A002010B5484B52
:103470005B8D1BB2002B53D1454BB3F84410454A2A
:103480001180B3F85A20444B1A80414BB3F8842280
:1034900012B24249CA63B3F8862212B20A64B3F880
:1034A0004C2012B2B3F88C321BB29A4246DD002295
:1034B000CA63374BB3F84C2012B2B3F88E321BB24A
:1034C0009A4250DA354B00221A64324B1888324B3C
:1034D0001988324C224609B200B2FFF7C9FCB4F990
:1034E00034202B4BA3F85E20B3F840301BB2042BE2
:1034F00009D0274BB3F840301BB2052B0FD1284B16
:103500001B78032B0BD1274B00221A60204BB3F8FA
:103510004C20A3F86020B3F84C20A3F8482010BD3D
:103520001B4AB2F844305B421BB21A490B80B2F816
:103530005A305B421BB2184A1380A6E7144BB3F80B
:103540004C2012B2B3F88C321BB2A3F299139A42F8
:10355000AFDD0F4BB3F842301BB2002BA9DD0F4B90
:103560000022DA63A5E70A4BB3F84C2012B2B3F895
:103570008E321BB203F299139A42A6DA044BB3F8C7
:10358000423013F4004FA0D0044B00221A649CE791
:10359000500E00204C0E00204A0E0020302100204A
:1035A000B0140020201A002030B44863CB6B834253
:1035B00000DA4B634A6B0B6C9A4200DA4B630023D0
:1035C0008B61CB610B620446C517C1E90A458A6B62
:1035D00000FB02F048640B6330BC704708B59A4B9F
:1035E000B3F804321BB2012B28D0974BB3F8043246
:1035F0001BB2032B22D0944BB3F804321BB2062B20
:103600001CD0914BB3F804321BB2042B64D08E4B08
:10361000B3F804321BB2022B19D18C4B1B78022B4E
:1036200063D0894BB3F81C321BB2002B40F0CA8028
:10363000854BB3F84620A3F85C2008E0824AB2F834
:103640006210B2F85E300B441BB2A2F85C307E4BC5
:10365000B3F85C2012B2B3F884321BB29A4204DD94
:10366000794BB3F88422A3F85C20774BB3F85C2045
:1036700012B2B3F886321BB29A4204DA724BB3F834
:103680008622A3F85C20704B5A8C12B2B3F88032B9
:103690001BB29A4203DD6C4BB3F880225A846A4B0A
:1036A0009A8C12B2B3F882321BB29A4203DA664B9A
:1036B000B3F882229A84644B598C09B2644AD1636C
:1036C000998C09B21164B3F85C00B3F8501009B2D8
:1036D00000B2FFF7CDFB08BD5B4BB3F85E20A3F84B
:1036E0005C205B4B01221A60B1E7574B5B8D1BB22C
:1036F000002B2CD1544BB3F84410564A1180B3F828
:103700005A20554B1A80534B1B8813F4004F32D16B
:10371000514B1A8812B24F4B1B881BB29A4208DCDD
:10372000494BB3F84C2012B2B3F88C321BB29A4218
:103730001BDD464B03221A70434B0422A3F80422DC
:10374000B3F84200454900B2FFF72EFF7FE73E4A3B
:10375000B2F844305B421BB23E490B80B2F85A309B
:103760005B421BB23C4A1380CDE7374BB3F84A208B
:10377000A3F85C206BE7384B1A8812B2354B1B88D4
:103780001BB29A4208DB304BB3F84C2012B2B3F8AC
:103790008E321BB29A420DDA2C4B03221A702A4B3E
:1037A0000422A3F80422B3F842002C4900B2FFF728
:1037B000FBFE4CE7244AB2F84A305B421BB2A2F847
:1037C0005C3044E7204BB3F81C321BB2012B18D0FD
:1037D0001D4BB3F81C321BB20B2B43D01A4BB3F862
:1037E0001C321BB20C2B00F09080174BB3F81C322C
:1037F0001BB20D2B00F09D80134B0022A3F85C2020
:1038000025E7114BB3F84C301BB240F2656293428E
:103810000DDC134B01221A600B4AB2F846301049F6
:10382000096813FB01F31BB2A2F85C300FE7064BEB
:10383000B3F84C301BB243F69A129342ECDD084BBE
:103840004FF0FF321A60E7E7500E0020B01400205E
:10385000A82200204C0E00204A0E0020302100201B
:10386000200900203D4BB3F8642012B2B3F8E032D7
:103870001BB29A4228DA3A4B01221A60374BB3F84E
:10388000463013F4004F2DD1344BB3F8463018B204
:10389000344A1368591C1160B3F57A6F0ADD134678
:1038A00000221A60304B1B7813BB304B1A702E4B22
:1038B00000221A702D4B1B78DBB2012B1CD0274B3A
:1038C0000022A3F85C20C2E6244BB3F8642012B2B5
:1038D000B3F858331BB29A42D0DD214B4FF0FF3280
:1038E0001A60CBE71D4BB3F846305B4218B2CFE706
:1038F0001E4B01221A70DAE7194B1B6813FB00F309
:103900001BB2164AA2F85C30A1E6144BB3F864204F
:1039100012B2B3F8E0321BB29A4205DD0F4B4FF4FE
:103920006042A3F85C2092E60C4B0022A3F85C20D6
:103930008DE60A4BB3F8642012B2B3F858331BB2C9
:103940009A4205DA054B4FF40052A3F85C207EE65C
:10395000024B0022A3F85C2079E600BF500E002045
:1039600020090020101A00205B1D0020C019002033
:1039700038B5364AB2F848301BB2B2F84C2012B211
:103980009B1A334A13601368002B48DB304B1A68CC
:10399000304B1B6893420ADD2F4A12683AB92F4A0E
:1039A000B2F90020312A3DDC01322C490A80284A34
:1039B0001268002A3ADB264A1268B2EB430F03DC96
:1039C000254B1B68012B04D10023254A1370234A81
:1039D0001380234B1A78234B1A70234B1B78DBB2CE
:1039E000012B27D01949B1F8923243F34A131F4AE9
:1039F000D363B1F8923243F34A135B421364134C1E
:103A0000B4F86000B4F84C10184D2A4609B200B260
:103A1000FFF72EFAB5F93430A4F85E3038BD1268DD
:103A20005242B5E70E4A01211170C0E7084A1268F8
:103A30005242C2E70549B1F892321BB20B4AD36336
:103A4000B1F892321BB25B421364D8E7500E0020EB
:103A5000FC1900208C1F0020301A0020C219002001
:103A6000AD190020AE1900202C09002000220020F2
:103A70005F4BB3F8481009B2B3F84C2012B28A1A5F
:103A8000B3F804321BB2032B0DD00023594A138024
:103A9000594A1370594A1370594A1370594A13708E
:103AA000594A13707047594B1B78DBB2012BECD08D
:103AB00010B5574B1B78DBB2012B17D04C4BB3F82A
:103AC00048301BB2534A13604A4BB3F90030012B04
:103AD0007ED0494B1B78DBB2012B7DD04E4B0022B0
:103AE0001A6000F093FCFFF743FF10BD404BB3F8A2
:103AF000B6321BB2934206DB3D4BB3F8B6321BB273
:103B00005B429342DADD424B00221A70384C638AE2
:103B10000323A4F8043200F01BFCB4F840301BB2BD
:103B2000012B2CD00023354A1370354A1370354AC7
:103B30001370354A13702E4BB3F8482012B2B3F805
:103B40004C301BB29A421EDA01232A4A13802A4AB9
:103B50001370324A1360324A1360254B5B8A1BB2E2
:103B60004BB9234BB3F85430C3F30B031BB9204BB1
:103B70000122A3F802222B4B00221A709EE72A4B47
:103B800000221A60CEE71A4BB3F8482012B2B3F8FD
:103B90004C301BB29A4291DD164B02221A8001234F
:103BA000154A13701D4A13601D4A1360104B5B8A3F
:103BB0001BB24BB90E4BB3F85430C3F30B031BB914
:103BC0000B4B0122A3F80222164B00221A7075E754
:103BD0000B4B01221A707CE7054BB3F802321BB283
:103BE000012B7FF47BAF0C4B01221A6079E700BFF9
:103BF000500E00203A0B0020F5140020320B00205C
:103C0000360B0020370B0020380B0020380E002028
:103C1000F4140020701A0020201A0020A82200208E
:103C200000220020F6140020B41A002007EE900AAB
:103C3000B8EEE70ADFED077A20EE270A064BD3ED50
:103C4000007A67EE807A054B93ED000A20EE270A92
:103C5000704700BF3333533A24090020280900205D
:103C60002DE9F0412DED028B4FF0A045D5F88000F5
:103C7000644B1B68C01AFFF7D9FF9FED638A20EEE3
:103C8000480ABDEEC00A614B10EE102A1A80604B44
:103C9000D3F880005F4B1B68C01AFFF7C7FF20EE08
:103CA000480ABDEEC00A10EE103A1CB25A4B1C80F6
:103CB000D5F88000594B1B68C01AFFF7B7FF20EEFC
:103CC000480ABDEEC00A10EE103A1BB2544A1380E7
:103CD000544A1380544E34805A42121B12B2534D30
:103CE0002A8007EE902AB8EEE71A07EE904AF8EE1F
:103CF000E70A07EE903AB8EEE70A81EE081AC0EE3E
:103D0000880A80EE080A4A4804F084FAB6F90000EE
:103D1000B5F9002083185B42464C236044F6E71156
:103D2000801AFCF78CFA444D2860266843490B68DA
:103D3000F31A434F3B60DFF82CC1DCF80030C31AA4
:103D4000404A1360DFF820E1DEF80030D7F8008049
:103D500003FB08F33B60DEF80030176803FB07F352
:103D600013600E60CCF80000374E306880B202F06D
:103D7000A9FF0746306880B202F0B6FF804621688E
:103D8000FCF75DFA064629683846FCF758FA0644FF
:103D900021683846FCF753FA044629684046FCF788
:103DA0004EFA201A294B1B881BB243B1284B1B68C3
:103DB000012B21D0274BB3F804321BB2E3B1264BC1
:103DC0001E60264B1860254B1B689B03244A116814
:103DD0000A6893FBF2F31BB21E4AA2F894321E4B00
:103DE0001B689B03096893FBF1F31BB2A2F84E30EA
:103DF000BDEC028BBDE8F081174B1E60174B1860BD
:103E0000E1E700BF841F002000007A44CE190020A3
:103E100000010050881F0020CA190020701F0020D8
:103E2000C6190020C4190020C8190020CC19002090
:103E3000702700202821002020210020F0190020D8
:103E40000C2100204822002050140020981400204B
:103E5000F0220020500E0020D4190020D01900209C
:103E600004090020F41900203009002000B583B0B7
:103E70004FF09042936943F40043936102F0C4FC15
:103E8000FFF7EEFEFEF785FD204B1B881BB243B10A
:103E90001F4BB3F804321BB21BBBFEF7FDFD02F053
:103EA00043FB4FF09042936A43F400439362194BF3
:103EB0001868194A194900B202F092FB184A13789F
:103EC00083F00103137004F0B1F9164A136801334B
:103ED0001360052B08DC144B0022DA6003B05DF898
:103EE00004FBFFF76FF8DAE7134600221A6002F1CD
:103EF000804202F58232136943F00803136102A87D
:103F0000032340F8083D05F0F1FAE4E79814002097
:103F1000500E0020541400207C1B0020781B002031
:103F2000AC1900200C1A0020003C00403A4BB3F8BA
:103F300002321BB2012B20D00023384A1360384ACA
:103F40001360354BB3F802321BB2012B37D0354B1F
:103F500000221A60304BB3F802321BB2012B38D06A
:103F6000314B00221A602C4BB3F802321BB2012BEA
:103F700043D02E4B00221A607047274BB3F804320F
:103F80001BB2012B15D0244BB3F804321BB2042B07
:103F90000FD0214BB3F804321BB2022B09D01E4BB9
:103FA000B3F804321BB2032BC6D1214B1B78002B74
:103FB000C2D10123194A1360194A1360C1E7164B95
:103FC000B3F804321BB2042BC1D1164B01221A6084
:103FD000C0E7114BB3F804321BB2022B09D00E4BD1
:103FE000B3F804321BB2032BBAD1114B1B78002B50
:103FF000B6D10D4B01221A60B5E7074BB3F8043276
:104000001BB2032BB5D10A4B1B78002BB1D1074B48
:1040100001221A60704700BF500E0020F0220020DD
:104020008021002030210020A82200200022002032
:10403000AD19002010B54FF09042936A43F0100381
:10404000936202F0CBFA5E4B1B68B3F5FA6F02DAAB
:1040500001335B4A1360FDF711FB5A4BB3F804328E
:104060001BB2042B7BD0FFF761FF574A1368013363
:104070001360002B18DD134600221A60534B0122F7
:104080001A70534A138801331BB21380322B05DD9B
:10409000134600221A804F4B01221A70FDF744FC90
:1040A00002F00EFAFFF7E4FCFEF7EEF9454BB3F829
:1040B00004321BB2032B0BD0424BB3F804321BB2B9
:1040C000022B05D03F4BB3F804321BB2042B01D1B5
:1040D000FFF784FA3B4BB3F802321BB2002B41D0FE
:1040E0003D4B1B78DBB2012B3CD03C4B1B78DBB249
:1040F000012B37D03A4B1B78DBB2012B32D0314B3E
:10410000B3F802321BB2012B58D1334B1B78002B72
:1041100054D1344B1B68022B02DC0133314A13604B
:10412000314B00221A602F4B1B68012B46D1254BC7
:10413000B3F804321BB2022B05D0224BB3F8043281
:104140001BB2012B05D11F4B0022A3F84620A3F878
:104150004220264B00221A6001F05AFE2EE0FFF7A3
:1041600085F980E700231F4A13601B4A1370154B23
:10417000B3F804321BB2022B05D0124BB3F8043251
:104180001BB2012B05D10F4B0022A3F84620A3F848
:1041900042200C4BB3F854301BB223B1094BB3F897
:1041A0004C20A3F848200024104B1C600B4B1C70C3
:1041B0000B4B1C7001F0DEFC0D4B1C6010BD00BFF2
:1041C000A0140020500E0020081A0020300B002000
:1041D000AC140020310B0020380E00207D1F002081
:1041E0007C1F0020041A0020001A002090140020D8
:1041F000E819002070B4474AB2F84C321BB2464965
:104200000B60B2F8A0321BB2002B4CD1414BB3F87B
:10421000B01209B2414A9160B3F8B21209B2D1604A
:1042200000211161B3F8B60200B25061B3F8A802E0
:1042300000B23B4A9060B3F8AA0200B2D0601161AC
:10424000B3F8AE0200B25061B3F8A20200B2354A30
:104250009060B3F8A40200B2D060116104245461EC
:10426000B3F8A20200B2304A9060B3F8A40200B2E0
:10427000D06011615461B3F8B81209B22B4A916051
:10428000B3F8BA1209B2D160B3F8BC1209B2116125
:10429000B3F8BE1209B25161B3F8B6321BB2244A68
:1042A000136070BC7047234BB3F910101B4A916028
:1042B000B3F91210D16000211161B3F916005061F9
:1042C000B3F90840164A9460B3F90A40D46011610A
:1042D000B3F90E405461B3F90260124A9660B3F923
:1042E0000450D5601161042454610F4A9660D56072
:1042F00011615461B3F918100C4A9160B3F91A10A6
:10430000D160B3F91C101161B3F91E305361084B31
:104310001860C6E7500E00206C1B00200022002011
:10432000A8220020F022002080210020302100203F
:104330008C1F00207014002008B5044A536943F014
:1043400008035361FFF776FE08BD00BF000401407B
:10435000254BB3F804321BB2032B2FD0234B1B6821
:10436000214AB2F846301BB207EE903AF8EEE77AEF
:104370001F4BD3ED006A87EEA67A1E4B83ED007AC1
:10438000938E1BB207EE903AF8EEE77A9FED1A7A19
:1043900027EE877A194B1B68D3ED007AF8EEE77A9F
:1043A00067EE277A9FED167A67EE877A154BC3ED95
:1043B000007A154B6FF063021A6070470A4BB3F82E
:1043C00046301BB2012B0ADD074B9B8E1BB2B3F5A7
:1043D000006FC3DA044B4FF400629A86BEE7024BCB
:1043E0000222A3F84620EFE7500E0020301A0020EA
:1043F0006C1F0020CC1A002000007A440009002025
:1044000000008038581A00207C1A002038B59D4BD7
:104410009D4A1A609D4BB3F90030012B71DD9C4B16
:104420001B68EBB99B4B1B78D3B99B4BB3F84C3053
:104430001BB29A4A13609A490B601368994A136039
:10444000994A13600023994A1360994A1360994A64
:104450001360994A1360994A00211160984A1360C9
:10446000984B1B68012B67D08B4BB3F840301BB2C5
:10447000022B6CD0884BB3F840301BB2924A1360C9
:10448000834B1B68012B6ED0834BB3F84C301BB2AF
:10449000854A13600023854A1360854A1360002310
:1044A000864A1360894A1360894A1360894B012246
:1044B0001A70774B1A68834B1A607B4B1B681BB2D0
:1044C000754AA2F86030794BD3ED007AF8EEE77ABE
:1044D000814B93ED007A67EE877AFDEEE77A17EE6F
:1044E000903A1BB2A2F86230714B1B689B037B4968
:1044F00081FB0301DB17C3EB61131BB2A2F870321F
:1045000038BD0133614A1380634BB3F84C301BB2A2
:10451000624A136062490B601368624A1360624A20
:1045200013600023614A1360614A1360634A0021EB
:104530001160634A1360E3E7554B1B68002B93D16E
:10454000554BB3F84C301BB2654A13608CE75E4B99
:104550001B68022B8ED0594B00221A60524B1A68EE
:10456000504B1A6086E74C4AB2F84C301BB25D499A
:104570000B60B2F840301BB2002B00F0C780B2F8DD
:1045800040301BB2052B00F0C180434BB3F84030E4
:104590001BB2022B01F0B0803F4BB3F840301BB28E
:1045A000012B40F01882504B1B68B3F57A7F81F2E3
:1045B000F180434B01221A60374B4FF48042A3F83D
:1045C00092223E4B93ED007A484BD3ED007AB4EE45
:1045D000E77AF1EE10FA41F1E480384BD3ED007A3E
:1045E0009FED437A77EE877AC3ED007AD3ED006AC8
:1045F0003E4BD3ED007A86EEA77A3E4B1B683E4ACF
:1046000011685B1A07EE903AF8EEE77A67EE277AC0
:10461000FDEEE77A17EE903A12681344224A1360CF
:10462000364B1B6803EBC303354A82FB0312DB17CF
:10463000C3EBA2031D4A13602E4B1A682E4B1B6856
:104640009A4241F3C080184B1B680A3B254A126806
:10465000934204DA0023154A1360194A13601D4B74
:1046600001221A70234BD3ED007AF8EEE77A254A3F
:10467000C2ED007AD3ED007AF8EEE77A224BC3ED73
:10468000007AA8E1601A002000002041801A002072
:10469000201A0020380E0020500E0020701A002032
:1046A0007C1A00206C1A00209C1A0020D01A0020CE
:1046B000541A00204C1A00201C1A0020B41A0020A2
:1046C000301A0020241A00202C1A0020D41A0020AE
:1046D000A81A00202C0900206C1F0020D34D621066
:1046E000281A0020901A0020A0140020BC1A0020D4
:1046F0006F128339941A0020981A0020C81A0020DB
:10470000676666668C1A0020881A0020B44B40F653
:10471000CC42A3F89222B34B1A68B34B1B689A425F
:1047200000F04581B14A136801331360B04B012298
:104730001A60B04B00221A60AF4BD3ED007AF8EE4E
:10474000E77AAE4BC3ED007AAD4B1B68AD4A136000
:104750001168AD4B1960A4490B6810681B1A07EE6D
:10476000903AF8EEE77AA94BC3ED007A0B6812682D
:104770009B1A002B35DB9C4B1B68A24A12689B1AC4
:1047800007EE903AF8EEE77AA14BC3ED007A9F4B23
:10479000D3ED007AF5EEC07AF1EE10FA2ADD9D4BEA
:1047A0004FF07E521A60954B93ED007ADFED9A7AC6
:1047B000B4EEE77AF1EE10FA20DD944BD3ED007AF7
:1047C000F5EEC07AF1EE10FA18DD944B00221A7063
:1047D0008A4BD3ED007AF0EEE77A914BC3ED007A85
:1047E00026E0884B1B680A689B1A07EE903AF8EEA1
:1047F000E77AC9E7874B8B4A1A60D4E77F4B93ED82
:10480000007ADFED897AB4EEE77AF1EE10FA07D597
:104810007E4BD3ED007AF5EEC07AF1EE10FAD4D4E7
:104820007E4B01221A700023744A13607C4A136085
:104830007E4B93ED007AF6EE006A27EE267AD3EDF2
:10484000007A27EE277A7A4991ED006AC7EE067A58
:10485000784CC4ED007AD3ED007A93ED007A67EEE0
:10486000877A664A92ED007A92ED006A27EE067A20
:1048700077EEC77A67EEA67A91ED006A87EE867AC0
:104880006D4880ED007AD2ED007A67EEA67A92ED5F
:10489000007A67EE877AD1ED006A87EEA67A674ADA
:1048A00082ED007AD4ED007A90ED007A77EE877A87
:1048B000634AC2ED007AD3ED007A9FED627A67EE2B
:1048C000877A614BC3ED007A514B93ED007AD2EDBC
:1048D000007AB4EEE77AF1EE10FA40F3CF805B4B4A
:1048E00003221A704B4BD3ED007A90ED007A27EE3D
:1048F000877A444AD2ED007AF8EEE77A77EE877A43
:104900005349C1ED007A4248D0ED007A94ED007A27
:1049100077EEC77A93ED007A27EE877AD2ED007AA8
:10492000F8EEE77A77EE877A93ED007A494BD3ED8C
:10493000006A27EE267A77EEC77A474BC3ED007AF6
:10494000294BD3ED007AF8EEE77A444BC3ED007AB9
:10495000364BD3ED007A324A92ED007A77EEC77A81
:104960003349D1ED006A87EEA67A3D4A82ED007A9E
:1049700090ED007A3248D0ED007A37EE677AD3EDC9
:10498000006AC7EE267A92ED007A77EE877A354A8A
:10499000C2ED007AD3ED006A91ED007AC6EE877A17
:1049A00092ED007A77EE877A2F4BC3ED007A104BA9
:1049B0001B68012B00F0048100230F4A13602B4A6F
:1049C000136000230B4A1360294A1360294A1360BD
:1049D000294B01221A70044B1A68024B1A6068E5D1
:1049E000500E00207C1A0020701A0020A01A00200F
:1049F000301A0020B41A0020D01A0020C01A00205B
:104A0000901A00206C1A00209C1A0020781A0020AE
:104A1000741A00205C1A0020CDCC4CBE651A002010
:104A2000C41A0020000080BFCDCC4C3ECC1A002020
:104A3000581A0020381A0020481A0020401A002076
:104A4000441A00206F1283393C1A0020641A002097
:104A5000841A0020601A0020881A00208C1A002076
:104A6000A41A0020AC1A0020B01A0020541A00200A
:104A7000D41A0020A81A00202C0900209D4B93ED89
:104A8000007A9D4BD3ED007AB4EEE77AF1EE10FA9E
:104A900021DC9A4B01221A70964BD3ED007A77EE07
:104AA000A77A974AD2ED006A87EEA67A954B83EDF6
:104AB000007AD2ED006A93ED007AC6EE877A924BC7
:104AC000C3ED007A914BD3ED007AF8EEE77A904B84
:104AD000C3ED007A6BE7894B02221A70854B93ED88
:104AE000007A8C4DD5ED007A27EE277A844CD4EDF0
:104AF000007AF6EE006A67EEA67AD4ED006A67EEF9
:104B0000A67A77EE277A17EE900AFBF747FD41EC7D
:104B1000100B07F0C1FF51EC100BFCF78FF87E4B28
:104B20001860D3ED007A94ED007A77EEC77AD5ED70
:104B3000006A87EEA67A734A82ED007AD3ED006AA6
:104B400095ED007AC6EE877A92ED007A77EE877A55
:104B5000724AC2ED007AD3ED007A93ED007A67EEE7
:104B6000877A94ED007AD4ED006A27EE267A77EE04
:104B7000C77A6B4B93ED007A67EE877A95ED007AF2
:104B800077EE076A87EEA67A664AD2ED007AF8EEEB
:104B9000E77A77EE277A93ED007A634BD3ED006ADC
:104BA00027EE267A77EEC77A594BC3ED007A574B3A
:104BB000D3ED007AF8EEE77A5C4BC3ED007AF6E6C7
:104BC0005B4BD3ED007A9FED5B7A77EE877AC3ED8E
:104BD000007A4A4B1B78DBB2032B2ED0474B1B7855
:104BE000DBB2022B00F08782444B1B78DBB2012B37
:104BF00000F09A84414B1B78002B7FF4ECAE4C4BB9
:104C000093ED007ADFED4C7AB4EEE77AF1EE10FA2C
:104C100040F12785434BD3ED007AF8EEE77AFDEEBD
:104C2000E77A464BC3ED007A0023454A1360454AB4
:104C30001360454B01221A70CDE6394BD3ED007A53
:104C4000F5EEC07AF1EE10FA0BDD384BD3ED007AB9
:104C5000FDEEE77A3D4B1B6817EE902A9A4200F36F
:104C600089802F4BD3ED007AF5EEC07AF1EE10FA81
:104C700074D42F4B93ED007A354BD3ED007AB4EE1C
:104C8000E77AF1EE10FA40F11182254BD3ED007A6C
:104C9000F5EEC07AF1EE10FA0CDD2E4BD3ED007A72
:104CA000FDEEE77A17EE903A643B284A1268934289
:104CB00000F340811A4BD3ED007AF5EEC07AF1EEA5
:104CC00010FA00F12A810023234A5364214AD2EDCD
:104CD000007AFDEEE77A194AC2ED007A184A1360AD
:104CE000184A13601A4B1A68114B1A60164B0122AE
:104CF0001A7070E6741A0020401A0020641A00200E
:104D0000C41A0020A41A0020501A0020701A002093
:104D1000841A0020581A0020D81A0020AC1A00204B
:104D20005C1A00206C1A0020601A0020881A0020EB
:104D3000B41A00206F1283396F1203399C1A0020B5
:104D4000D01A0020541A00202C090020901A0020AC
:104D5000B01A00208C1A0020A8220020C04BD3EDEE
:104D6000007AFDEEE77ABF4B1B6817EE902A9A4255
:104D7000BFF67FAFBC4B93ED007ABC4BD3ED007A0E
:104D8000B4EEE77AF1EE10FA62D5B94BD3ED007AC2
:104D9000F8EEE77AB74890ED007AB34BD3ED006AAE
:104DA00027EE267AB44AD2ED006A93ED006A66EEE9
:104DB000866A93ED006A66EE866AB6EE006A66EE73
:104DC000866A37EE267AAD49D1ED006A27EE267A5B
:104DD00077EE877AFDEEE77AA94CC4ED007AD2ED42
:104DE000007A93ED007A67EE877A90ED007A77EE9D
:104DF000877A91ED007A67EE877AFDEEE77AA14B2C
:104E0000C3ED007A91ED007AD2ED007A27EE277A91
:104E1000DFED9D6AC7EE267AFDEEE77A9B4BC3ED88
:104E2000007A9B4B00221A708F4B1A68994B1A60BC
:104E3000994AD2ED006A904A92ED007AC6EE877ADE
:104E400093ED007A77EE877A944BC3ED007AC2E552
:104E50008A4BD3ED007A904A92ED007A67EE877A1A
:104E6000814A92ED007A814AD2ED006A37EE667A85
:104E700067EE877A8A4A92ED007A77EE877AFDEEBE
:104E8000E77A7F4AC2ED007AD3ED007AF5EEC07A78
:104E9000F1EE10FA12DD724BD3ED007AFDEEE77AF7
:104EA000704B1B6817EE902A9A4207DA6C4BD3EDD1
:104EB000007AFDEEE77A724BC3ED007A6F4BD3EDCB
:104EC000007AF5EEC07AF1EE10FA12D46B4BD3ED06
:104ED000007A714B93ED007A67EE877AFDEEE77A00
:104EE000684BC3ED007A0023684A1360684A137068
:104EF0009AE75B4BD3ED007AFDEEE77A594B1B68DE
:104F000017EE902A9A42E1DD554BD3ED007AFDEE83
:104F1000E77A5B4BC3ED007AD8E7624BD3ED007ABA
:104F2000FDEEE77A17EE903A64334E4A12689342E8
:104F3000BFF6C9AE514BD3ED007A574C94ED007AD1
:104F400067EE877A484991ED007A524AD2ED006ABD
:104F500037EE667A67EE877A414890ED007A77EE11
:104F6000877A93ED007A4448D0ED006A27EE267ADE
:104F7000D1ED006A92ED006A76EEC66A27EE267AD7
:104F8000D1ED006A92ED006A76EEC66A27EE267AC7
:104F9000F6EE006A27EE267A77EEC77AFDEEE77A1C
:104FA000374DC5ED007AD3ED007A94ED007A67EEC7
:104FB000877A93ED007AD0ED006A27EE267AD1ED5C
:104FC000006A92ED006A76EEC66A27EE267A77EEE0
:104FD000C77AFDEEE77A2B4AC2ED007A93ED007AAC
:104FE000D0ED007A27EE677ADFED276AC7EE267AE2
:104FF000FDEEE77A254AC2ED007A254A00211170BC
:10500000D3ED007AF5EEC07AF1EE10FA13DD1D4B08
:105010001B688B42BFF6DFAC0B461A4A11601B4A75
:1050200011601E4A1168104A11601F4A5364184BE0
:1050300001221A70CFE4134B1B68002B7FF7CBAC17
:105040000023104A1360114A1360144A1168064A7B
:105050001160154A53640E4B01221A70BBE400BF65
:10506000881A0020901A0020B41A0020A41A0020E8
:105070006C1A0020C41A0020581A00205C1A002064
:105080009C1A0020D01A00200000FA45541A002073
:105090002C090020B81A0020CC1A0020B01A0020D9
:1050A000841A00208C1A0020A82200200122A24B82
:1050B0001A600023A1494B64A149D1ED007AFDEEAD
:1050C000E77AA049C1ED007A9F490B609F490B60C8
:1050D0009F490B609F4B002119609F4B1A709F4B9B
:1050E0001B7893427FF477AC02239C4A13709C4A4E
:1050F000A2F804326FE49B4BD3ED007AF5EEC07A50
:10510000F1EE10FA0ADD984BD3ED007AFDEEE77A66
:10511000964B1B6817EE902A9A4253DC914BD3EDC5
:10512000007AF5EEC07AF1EE10FA40D4894B93ED97
:10513000007A8F4BD3ED007AB4EEE77AF1EE10FAF5
:1051400040F1CE81874BD3ED007AF5EEC07AF1EED7
:1051500010FA0CDD874BD3ED007AFDEEE77A17EEFF
:10516000903A643B814A1268934200F322817D4B5E
:10517000D3ED007AF5EEC07AF1EE10FA00F10C8171
:1051800000236E4A53647B4AD2ED007AFDEEE77A43
:105190006C4AC2ED007A6C4A13606C4A1360744B1F
:1051A0001A686C4B1A606C4B01221A7013E46E4B38
:1051B000D3ED007AFDEEE77A6C4B1B6817EE902A70
:1051C0009A42B3DA634B93ED007A6B4BD3ED007ADE
:1051D000B4EEE77AF1EE10FA40F18280674BD3ED3E
:1051E000007AF8EEE77A664890ED007A594BD3EDF5
:1051F000006A27EE267A634AD2ED006A93ED006AD0
:1052000066EE866A93ED006A66EE866AB6EE006A1E
:1052100066EE866A37EE267A5249D1ED006A27EEAD
:10522000267A77EE877AFDEEE77A464CC4ED007A6F
:10523000D2ED007A93ED007A67EE877A90ED007AEE
:1052400077EE877A91ED007A67EE877AFDEEE77A5E
:105250003D4BC3ED007A91ED007AD2ED007A27EE56
:10526000277ADFED496AC7EE267AFDEEE77A374BFB
:10527000C3ED007A374B1A68444B1A60324BD3EDBA
:10528000007AF8EEE77A424BC3ED007AD3ED007A6C
:10529000F5EEC07AF1EE10FA3BD43D4BD3ED006A47
:1052A000384A92ED007AC6EE877A384A92ED007A53
:1052B00077EE877A2E4AC2ED007A234AD2ED007A41
:1052C000F8EEE77AC3ED007AD3ED007AF5EEC07A16
:1052D000F1EE10FA26D4204B00221A70FFF77BBBA8
:1052E000214BD3ED007AFDEEE77A164BC3ED007A41
:1052F0001C4BD3ED007A264B93ED007A67EE877A4C
:10530000FDEEE77A104BC3ED007A104B00221A60D5
:10531000B0E793ED007ADFED1F7A77EEC77AC3ED41
:10532000007ABAE793ED007ADFED1A7A77EEC77A62
:10533000C3ED007ACFE700BF681A0020A822002042
:105340008C1A00209C1A0020D01A0020541A002029
:10535000301A0020B41A00202C090020B0140020BC
:10536000500E00205C1A0020841A0020901A0020A1
:10537000AC1A0020881A0020A41A00206C1A002001
:10538000C41A0020581A00200000FA45B81A00205C
:10539000D81A002000000000C14BD3ED007AFDEECA
:1053A000E77A17EE903A6433BE4A12689342BFF62A
:1053B000E7AEBD4BD3ED007ABC4C94ED007A67EEBE
:1053C000877ABB4991ED007ABA4AD2ED006A37EE8E
:1053D000667A67EE877AB84890ED007A77EE877A3A
:1053E00093ED007AB548D0ED006A27EE267AD1ED2C
:1053F000006A92ED006A76EEC66A27EE267AD1ED53
:10540000006A92ED006A76EEC66A27EE267AF6EE1C
:10541000006A27EE267A77EEC77AFDEEE77AA84D86
:10542000C5ED007AD3ED007A94ED007A67EE877AC5
:1054300093ED007AD0ED006A27EE267AD1ED006A6E
:1054400092ED006A76EEC66A27EE267A77EEC77A84
:10545000FDEEE77A9B4AC2ED007A93ED007AD0ED3B
:10546000007A27EE677ADFED986AC7EE267AFDEEBE
:10547000E77A964AC2ED007A954A00211170D3ED81
:10548000007AF5EEC07AF1EE10FA14DD8D4B1B6850
:105490008B42BFF6A0AA0B468A4A11608B4A116064
:1054A0008C4A1168824A11608B4A5364884B0122EE
:1054B0001A70FFF790BA834B1B68002B7FF78BAAFB
:1054C0000023804A1360814A1360824A1168784A37
:1054D0001160814A53647E4B01221A70FFF77BBA38
:1054E00000237D4A53646E4AD2ED007AFDEEE77ADE
:1054F000734AC2ED007A734A1360744A1360774AA4
:1055000013606B4B00221A60714B01221A70744BAE
:105510001B7893427FF45FAA0223714A1370714A89
:10552000A2F80432FFF757BA5F4BD3ED007AF5EEDD
:10553000C07AF1EE10FA0ADD5F4BD3ED007AFDEE92
:10554000E77A584B1B6817EE902A9A4234DC564B88
:10555000D3ED007AF5EEC07AF1EE10FA21D4564B75
:10556000D3ED007AFDEEE77A554BC3ED007A0023C8
:10557000544A1360554A1360584A13604C4B00223A
:105580001A60534B01221A70554B1B7893427FF4DB
:1055900022AA0223524A1370524AA2F80432FFF799
:1055A0001ABA454BD3ED007AFDEEE77A3D4B1B6806
:1055B00017EE902A9A42D2DA4B4BD3ED007AF8EEEE
:1055C000E77A394B93ED007A4848D0ED006A27EE30
:1055D000267A374AD2ED006A27EE267A77EE877A66
:1055E00093ED007A4249D1ED006A27EE267AD2ED9A
:1055F000006A27EE267AD2ED006A27EE267AF6EECA
:10560000006A27EE267A77EEC77AFDEEE77A2C4C11
:10561000C4ED007AD3ED007A90ED007A67EE877AD8
:1056200093ED007AD1ED006A27EE267AD2ED006A7A
:1056300027EE267A77EEC77AFDEEE77A214AC2EDA9
:10564000007AD3ED007A91ED007A67EEC77AFDEE2D
:10565000E77A1E4BC3ED007A1D4B01221A70FFF74B
:10566000BAB9244B1A68164B1A600023154A136006
:10567000164A1360194A13600D4B00221A60144B2E
:1056800001221A70164B1B7893427FF4A4A90223BF
:10569000134A1370134AA2F80432FFF79CB900BFF3
:1056A000881A0020901A00205C1A0020D81A0020C6
:1056B000B41A0020B81A0020841A0020581A0020BA
:1056C0009C1A0020D01A00200000FA45541A00202D
:1056D0002C090020AC1A0020A8220020301A00203B
:1056E000B0140020500E00206C1A0020C41A0020B4
:1056F000501A0020701A00203A4B40F6CC42A3F812
:105700009222394B1B68002B05DD384B1A68384B49
:105710001B689A4232DC344B1B68002B28DB354B6C
:1057200001221A60344BD3ED007A9FED347A77EE84
:10573000877AC3ED007A324AD2ED007AF8EEE77A42
:10574000294A92ED007AB8EEC77AD3ED006A27EEC7
:10575000267A77EE877AFDEEE77A244BC3ED007A5E
:105760001268284B1A60284B01221A70FFF733B9D0
:105770001E4B1A681E4B1B689A42D0DA194B002246
:10578000A3F8402000231C4A1360204A1360204ADB
:105790001360E8E70023174A13601E4A1360FEF700
:1057A0000BBF1C4B1B6803EB43031B4A82FB03121A
:1057B000DB17C3EBA203134A1360184B1A680B4B99
:1057C0001A60FEF739BF094B1B680A33144A126886
:1057D00093427EF744AF00230A4A1360054A1360E0
:1057E000FEF73DBF500E0020341A00209C1A002006
:1057F000701A0020301A0020B41A00206F1283396A
:105800006C1A0020D01A00202C090020D41A002085
:10581000A81A0020C81A002067666666941A00203D
:10582000901A00202DE9F8433D4B5B8A1BB2012BF7
:105830006ED03B4BB3F8482012B2DB8C1BB29A42BD
:105840000EDD374BDA8CA3F84820B3F848301BB292
:10585000B3F5804F04DD324B4FF48042A3F848206B
:105860002F4BB3F8482012B21B8D1BB29A4208DAB4
:105870002B4B1A8DA3F84820B3F8483013F4004F8F
:1058800048D1284B01221A70274B1C68274A146004
:1058900000221A60264D2B68264F3B60204BB3F840
:1058A00048301BB22B602046FAF766FE0022224BDE
:1058B000FAF7F6FFFBF7C2F9204E306028683B6824
:1058C000C01AFAF759FE804689463068FAF766FE34
:1058D00002460B4640464946FAF7E2FFFBF766F9F7
:1058E000174B18601A68174B1B689A4201DD144A5F
:1058F00013605B42124A1268934201DD104A136042
:10590000B4F5FA7F02DB064BB3F84030FDF732F80E
:10591000BDE8F883024B0022A3F84820B1E700BF9E
:10592000500E0020F4140020A01400209C1400202D
:10593000941A0020981A00200040AF40BC1A0020A2
:10594000C81A002094140020411A0029B8BF494207
:10595000202901D8002070470120704708B50B4B63
:105960005A6942F008025A611A6842F008021A6045
:105970005A6842F008025A6001221146092004F0D8
:105980004BF8092004F07CF808BD00BF000401407A
:1059900010B59CB00024189419941A941B94159473
:1059A000169417940E940F941094119412941394C7
:1059B00014943422214601A807F065F86748684B23
:1059C00003604460202383604FF45263C36004612A
:1059D00044618023836104F053FA002840F0A080E2
:1059E0001CA94FF4805341F8103D5C4804F002FCC0
:1059F000002840F09880594804F0A0FA002840F0B0
:105A00009580564804F06BFA002840F0928070238D
:105A1000159300231693179315A9504804F0CEFD53
:105A2000002840F0898060230E934D4BDB6A5B08B1
:105A30000F93002210921192042312931392149246
:105A40000EA9464804F02DFB002878D1444BDB6AB0
:105A50009B080F9304220EA9404804F022FB002863
:105A600070D13F4BDB6A5B080F9308220EA93B48BD
:105A700004F017FB002868D170230E9340F61F53E3
:105A80000F930C220EA9354804F0CEFA00285FD1FE
:105A90004FF400630193002302930393049305934F
:105AA0004FF4005206920793089309934FF0007247
:105AB0000A920B930C930D9301A9284804F0C8FD9A
:105AC000002848D1254C204602F010FA002120463B
:105AD00004F032FC0421204604F02EFC082120466C
