:020000040800F2
:100000000080002025B30008E16C0008E36C0008C4
:10001000E56C0008E76C0008E96C000800000000CF
:1000200000000000000000000000000091B2000885
:10003000EB6C000800000000C1B20008ED6C000885
:1000400075B3000875B3000875B3000875B30008F0
:1000500075B3000875B3000875B3000875B30008E0
:1000600075B30008CD38000875B30008F16C0008BE
:1000700075B30008552200087922000875B30008FE
:1000800075B3000800000000FD16000875B30008F5
:1000900075B3000875B3000875B3000875B30008A0
:1000A00075B3000875B3000875B3000875B3000890
:1000B00075B3000875B3000875B3000875B3000880
:1000C00075B3000875B3000875B3000875B3000870
:1000D00075B30008FD6C000875B3000875B300081F
:1000E00075B3000875B3000875B3000875B3000850
:1000F00075B3000875B3000875B300080000000070
:100100000000000075B300080000000075B300088F
:1001100075B300080000000075B3000875B300084F
:1001200075B3000875B3000875B3000875B300080F
:1001300075B30008000000000000000075B300085F
:1001400075B3000875B3000800000000000000004F
:10015000000000000000000000000000000000009F
:1001600000000000000000000000000075B300085F
:1001700075B300080000000000000000000000004F
:100180000000000075B3000800000000000000003F
:10019000000000000000000000000000000000005F
:1001A000000000000000000075B3000875B30008EF
:1001B00075B3000875B3000875B3000800000000AF
:1001C0000000000075B300080000000000000000FF
:0801D00075B3000875B30008C7
:1001E00010B5054C237833B9044B13B10448AFF371
:1001F00000800123237010BD300A002000000000A1
:100200001CC1000808B5034B1BB103490348AFF3F9
:10021000008008BD00000000340A00201CC1000856
:1002200000F500404FEA204070474FEA0040704719
:1002300080FB01014FEA104000EB0140704780FB5A
:1002400001014FEAD03000EB4140704730B430BC80
:100250007047000000D170474FF020014FF000427E
:100260001042A1F101014FEA5202F9D04FEA5101C7
:100270004FF0010202FA01F190FBF1F2A2EB010250
:100280004FEA6202114490FBF1F2A2EB01024FEA45
:100290006202114490FBF1F2A2EB01024FEA62020A
:1002A000114490FBF1F2A2EB01024FEA620201EB72
:1002B00002000846704700FB01F393FBF2F0704721
:1002C00000FB01F07047B0FBF1F0704701FB00F05C
:1002D0007047000081F0004102E000BF83F000435E
:1002E00030B54FEA41044FEA430594EA050F08BFD1
:1002F00090EA020F1FBF54EA000C55EA020C7FEA95
:10030000645C7FEA655C00F0E2804FEA5454D4EB11
:100310005555B8BF6D420CDD2C4480EA020281EADB
:10032000030382EA000083EA010180EA020281EA13
:100330000303362D88BF30BD11F0004F4FEA013165
:100340004FF4801C4CEA113102D0404261EB410174
:1003500013F0004F4FEA03334CEA133302D05242FA
:1003600063EB430394EA050F00F0A780A4F10104B6
:10037000D5F1200E0DDB02FA0EFC22FA05F28018F0
:1003800041F1000103FA0EF2801843FA05F35941D6
:100390000EE0A5F120050EF1200E012A03FA0EFC55
:1003A00028BF4CF0020C43FA05F3C01851EBE3717F
:1003B00001F0004507D54FF0000EDCF1000C7EEB9C
:1003C00000006EEB0101B1F5801F1BD3B1F5001FDA
:1003D0000CD349085FEA30004FEA3C0C04F10104F9
:1003E0004FEA445212F5800F80F09A80BCF1004F22
:1003F00008BF5FEA500C50F1000041EB045141EAA4
:10040000050130BD5FEA4C0C404141EB010111F4A4
:10041000801FA4F10104E9D191F0000F04BF01464F
:100420000020B1FA81F308BF2033A3F10B03B3F12D
:1004300020020CDA0C3208DD02F1140CC2F10C02BD
:1004400001FA0CF021FA02F10CE002F11402D8BF1B
:10045000C2F1200C01FA02F120FA0CFCDCBF41EAE7
:100460000C019040E41AA2BF01EB0451294330BDB6
:100470006FEA04041F3C1CDA0C340EDC04F1140493
:10048000C4F1200220FA04F001FA02F340EA03006A
:1004900021FA04F345EA030130BDC4F10C04C4F1B0
:1004A000200220FA02F001FA04F340EA0300294690
:1004B00030BD21FA04F0294630BD94F0000F83F4DA
:1004C000801306BF81F480110134013D4EE77FEABD
:1004D000645C18BF7FEA655C29D094EA050F08BF09
:1004E00090EA020F05D054EA000C04BF19461046EA
:1004F00030BD91EA030F1EBF0021002030BD5FEA2E
:10050000545C05D14000494128BF41F0004130BD55
:1005100014F580043CBF01F5801130BD01F00045A9
:1005200045F0FE4141F470014FF0000030BD7FEA1C
:10053000645C1ABF194610467FEA655C1CBF0B4617
:10054000024650EA013406BF52EA033591EA030F2E
:1005500041F4002130BD00BF90F0000F04BF002126
:10056000704730B54FF4806404F132044FF0000559
:100570004FF0000150E700BF90F0000F04BF0021D2
:10058000704730B54FF4806404F1320410F0004538
:1005900048BF40424FF000013EE700BF42004FEA33
:1005A000E2014FEA31014FEA02701FBF12F07F43B0
:1005B00093F07F4F81F06051704732F07F4208BF67
:1005C000704793F07F4F04BF41F40021704730B56E
:1005D0004FF4607401F0004521F000411CE700BFBA
:1005E00050EA010208BF704730B54FF000050AE03D
:1005F00050EA010208BF704730B511F0004502D53E
:10060000404261EB41014FF4806404F132045FEA3F
:10061000915C3FF4D8AE4FF003025FEADC0C18BFE8
:1006200003325FEADC0C18BF033202EBDC02C2F1DA
:10063000200300FA03FC20FA02F001FA03FE40EA6C
:100640000E0021FA02F11444BDE600BF70B54FF070
:10065000FF0C4CF4E06C1CEA11541DBF1CEA13554E
:1006600094EA0C0F95EA0C0F00F0DEF82C4481EAB6
:10067000030621EA4C5123EA4C5350EA013518BFD6
:1006800052EA033541F4801143F4801338D0A0FBC3
:1006900002CE4FF00005E1FB02E506F00042E0FB70
:1006A00003E54FF00006E1FB03569CF0000F18BF76
:1006B0004EF0010EA4F1FF04B6F5007F64F540741E
:1006C00004D25FEA4E0E6D4146EB060642EAC621B1
:1006D00041EA55514FEAC52040EA5E504FEACE2E1E
:1006E000B4F1FD0C88BFBCF5E06F1ED8BEF1004F21
:1006F00008BF5FEA500E50F1000041EB045170BD9D
:1007000006F0004646EA010140EA020081EA0301E0
:10071000B4EB5C04C2BFD4EB0C0541EA045170BDDC
:1007200041F480114FF0000E013C00F3AB8014F156
:10073000360FDEBF002001F0004170BDC4F100049F
:10074000203C35DA0C341BDC04F11404C4F1200520
:1007500000FA05F320FA04F001FA05F240EA02007B
:1007600001F0004221F0004110EBD37021FA04F6B1
:1007700042EB06015EEA430E08BF20EAD37070BD6B
:10078000C4F10C04C4F1200500FA04F320FA05F0CA
:1007900001FA04F240EA020001F0004110EBD370CC
:1007A00041F100015EEA430E08BF20EAD37070BD3C
:1007B000C4F1200500FA05F24EEA020E20FA04F315
:1007C00001FA05F243EA020321FA04F001F00041C4
:1007D00021FA04F220EA020000EBD3705EEA430E35
:1007E00008BF20EAD37070BD94F0000F0FD101F064
:1007F0000046400041EB010111F4801F08BF013C9D
:10080000F7D041EA060195F0000F18BF704703F0DA
:100810000046520043EB030313F4801F08BF013D61
:10082000F7D043EA0603704794EA0C0F0CEA13551D
:1008300018BF95EA0C0F0CD050EA410618BF52EAD7
:100840004306D1D181EA030101F000414FF00000DD
:1008500070BD50EA410606BF1046194652EA4306EB
:1008600019D094EA0C0F02D150EA013613D195EA5F
:100870000C0F05D152EA03361CBF104619460AD1A7
:1008800081EA030101F0004141F0FE4141F47001B1
:100890004FF0000070BD41F0FE4141F4780170BDA1
:1008A00070B54FF0FF0C4CF4E06C1CEA11541DBF06
:1008B0001CEA135594EA0C0F95EA0C0F00F0A7F808
:1008C000A4EB050481EA030E52EA03354FEA013135
:1008D00000F088804FEA03334FF0805545EA131348
:1008E00043EA12634FEA022245EA111545EA106510
:1008F0004FEA00260EF000419D4208BF964244F1A7
:10090000FD0404F5407402D25B084FEA3202B61AC5
:1009100065EB03055B084FEA32024FF480104FF499
:10092000002CB6EB020E75EB030E22BFB61A75460D
:1009300040EA0C005B084FEA3202B6EB020E75EBA0
:10094000030E22BFB61A754640EA5C005B084FEA08
:100950003202B6EB020E75EB030E22BFB61A7546D5
:1009600040EA9C005B084FEA3202B6EB020E75EBE0
:10097000030E22BFB61A754640EADC0055EA060EA1
:1009800018D04FEA051545EA16754FEA06164FEAE4
:10099000C30343EA52734FEAC2025FEA1C1CC0D190
:1009A00011F4801F0BD141EA00014FF000004FF01D
:1009B000004CB6E711F4801F04BF01430020B4F1DE
:1009C000FD0C88BFBCF5E06F3FF6AFAEB5EB030C96
:1009D00004BFB6EB020C5FEA500C50F1000041EB93
:1009E000045170BD0EF0004E4EEA113114EB5C0460
:1009F000C2BFD4EB0C0541EA045170BD41F4801133
:100A00004FF0000E013C90E645EA060E8DE60CEA3A
:100A1000135594EA0C0F08BF95EA0C0F3FF43BAF57
:100A200094EA0C0F0AD150EA01347FF434AF95EA0E
:100A30000C0F7FF425AF104619462CE795EA0C0FF2
:100A400006D152EA03353FF4FDAE1046194622E7BF
:100A500050EA410618BF52EA43067FF4C5AE50EA99
:100A600041047FF40DAF52EA43057FF4EBAE12E789
:100A70004FF0FF3C06E000BF4FF0010C02E000BF6A
:100A80004FF0010C4DF804CD4FEA410C7FEA6C5C4D
:100A90004FEA430C18BF7FEA6C5C1BD001B050EAF0
:100AA000410C0CBF52EA430C91EA030F02BF90EADB
:100AB000020F0020704710F1000F91EA030F58BF9A
:100AC000994208BF90422CBFD8176FEAE37040F0FC
:100AD000010070474FEA410C7FEA6C5C02D150EA9A
:100AE000013C07D14FEA430C7FEA6C5CD6D152EA55
:100AF000033CD3D05DF8040B704700BF844610461A
:100B000062468C461946634600E000BF01B5FFF718
:100B1000B7FF002848BF10F1000F01BD4DF808EDE8
:100B2000FFF7F4FF0CBF012000205DF808FB00BFB9
:100B30004DF808EDFFF7EAFF34BF012000205DF813
:100B400008FB00BF4DF808EDFFF7E0FF94BF012060
:100B500000205DF808FB00BF4DF808EDFFF7CEFF61
:100B600094BF012000205DF808FB00BF4DF808EDA0
:100B7000FFF7C4FF34BF012000205DF808FB00BF71
:100B80004FEA410C7FEA6C5C02D150EA013C0AD189
:100B90004FEA430C7FEA6C5C02D152EA033C02D17B
:100BA0004FF0000070474FF0010070474FEA4102DC
:100BB00012F5001215D211D56FF47873B3EB6252AF
:100BC00012D94FEAC12343F0004343EA505311F0D6
:100BD000004F23FA02F018BF404270474FF0000068
:100BE000704750EA013005D111F0004008BF6FF0A6
:100BF000004070474FF00000704700BF4A0011D21C
:100C000012F5001211D20DD56FF47873B3EB625266
:100C10000ED44FEAC12343F0004343EA505323FA72
:100C200002F070474FF00000704750EA013002D1E7
:100C30004FF0FF3070474FF0000070474FEA41021D
:100C4000B2F1E04324BFB3F5001CDCF1FE5C0DD92A
:100C500001F0004C4FEAC0024CEA5070B2F1004F74
:100C600040EB830008BF20F00100704711F0804F77
:100C700021D113F13872BCBF01F00040704741F43C
:100C800080114FEA5252C2F11802C2F1200C10FA40
:100C90000CF320FA02F018BF40F001004FEAC12324
:100CA0004FEAD32303FA0CFC40EA0C0023FA02F3C8
:100CB0004FEA4303CCE77FEA625307D150EA01339E
:100CC0001EBF4FF0FE4040F44000704701F000406E
:100CD00040F0FE4040F40000704700BF7BB972B99D
:100CE0000029BEBF00204FF0004106E008BF0028E9
:100CF0001CBF6FF000414FF0FF3000F0BDB9ADF107
:100D0000080C6DE904CE002909DB002B1ADB00F08A
:100D10004DF8DDF804E0DDE9022304B070474042FD
:100D200061EB4101002B1BDB00F040F8DDF804E033
:100D3000DDE9022304B0404261EB4101524263EB22
:100D400043037047524263EB430300F02FF8DDF892
:100D500004E0DDE9022304B0404261EB4101704749
:100D6000524263EB430300F021F8DDF804E0DDE9D3
:100D7000022304B0524263EB4303704753B94AB9AC
:100D8000002908BF00281CBF4FF0FF314FF0FF3093
:100D900000F072B9ADF1080C6DE904CE00F006F870
:100DA000DDF804E0DDE9022304B070472DE9F047E7
:100DB000089E04468846002B4BD18A42154667D9C7
:100DC000B2FA82F24AB1C2F1200701FA02F320FA24
:100DD00007F7954047EA030894404FEA154E230C65
:100DE000B8FBFEF71FFA85FC0EFB178843EA0843A1
:100DF00007FB0CF1994209D9EB1807F1FF3080F09D
:100E00001B81994240F21881023F2B445B1AA4B225
:100E1000B3FBFEF00EFB103344EA034400FB0CFC72
:100E2000A44509D92C1900F1FF3380F00781A445AE
:100E300040F2048102382C4440EA0740A4EB0C0441
:100E400000271EB1D4400023C6E900433946BDE85F
:100E5000F0878B4209D9002E00F0EB800027C6E90D
:100E6000000138463946BDE8F087B3FA83F7002F12
:100E700047D18B4202D3824200F2FA80841A61EB9E
:100E8000030301209846002EE0D0C6E90048DDE7C4
:100E900002B9FFDEB2FA82F2002A40F08F80491BCD
:100EA0004FEA154E1FFA85F80127B1FBFEFC230C13
:100EB0000EFB1C1143EA014308FB0CF1994207D9D0
:100EC000EB180CF1FF3002D2994200F2CD8084463B
:100ED000591AA3B2B1FBFEF00EFB101443EA04440E
:100EE00008FB00F8A04507D92C1900F1FF3302D206
:100EF000A04500F2B6801846A4EB080440EA0C4076
:100F00009FE7C7F1200CBB4022FA0CFE4EEA030E0D
:100F100001FA07F420FA0CF521FA0CF34FEA1E4807
:100F20002543B3FBF8F92C0C08FB19331FFA8EFA92
:100F300044EA034309FB0AF49C4202FA07F200FA6E
:100F400007F10BD91EEB030309F1FF3080F0878016
:100F50009C4240F28480A9F1020973441B1BADB28C
:100F6000B3FBF8F008FB103345EA034400FB0AFA30
:100F7000A24508D91EEB040400F1FF336BD2A24551
:100F800069D90238744440EA0940A0FB0289A4EB05
:100F90000A044C45C2464B4654D351D0002E69D06A
:100FA000B1EB0A0564EB030404FA0CFCFD40FC40C1
:100FB0004CEA0505C6E90054002747E7C2F12003C3
:100FC00020FA03F7954001FA02F021FA03F34FEA01
:100FD000154E3843010CB3FBFEF71FFA85F80EFBE4
:100FE000173341EA034107FB08F38B4204FA02F48A
:100FF00007D9691807F1FF3C2FD28B422DD9023F48
:101000002944CB1A81B2B3FBFEF00EFB103341EA48
:10101000034100FB08F38B4207D9691800F1FF3C3C
:1010200017D28B4215D902382944C91A40EA07471A
:101030003BE73746304609E70746E7E61846FBE652
:101040004145ABD2B8EB020A69EB0E0201381346F8
:10105000A4E76046E9E7184695E76746D1E7814689
:101060007CE702382C4447E7ACF1020C2B442FE715
:10107000384608E73746E9E6704700BF10B5A4B028
:101080003822002105A80AF0A6F91422002168469A
:101090000AF0A1F94422002113A80AF09CF90020CB
:1010A00007F060FB01224FF48033CDE905230324D0
:1010B00002230E9205A82A22CDE90C34CDE90F2394
:1010C000CDE9113306F0C6FA08B172B6FEE70F2378
:1010D000CDE90200049005216846CDE9003406F010
:1010E000FFFC08B172B6FEE748F20103CDE9133008
:1010F0004FF0005313A8229306F00AFE08B172B60F
:10110000FEE724B010BD000080B59A4C88B00023E3
:10111000019306F07DFAFFF7B1FF01F00BFB00F041
:10112000B3FDE36C43F00403E364E36C03F00403F6
:101130000493049BE36C43F02003E364E36C03F04B
:1011400020030593059BE36C43F00103E364E36C28
:1011500003F001030693069BE36C43F00203E36490
:10116000E36C03F002030793079B01F0EFF882485A
:1011700006F038F8A36C43F00403A364A36C03F0F7
:1011800004030293029BA36C43F00103A364A36CCA
:101190007A4C012203F00103114603930B20039BB9
:1011A00007F054FB012211460C2007F04FFB0122EF
:1011B00011460D2007F04AFB012211460E2007F0D0
:1011C00045FB00F0F5F800F073F904F04FF800F07B
:1011D00051FC30B9B4F854301BB243F08003A4F88A
:1011E000543004F04DFF664F664D02F0CFFA0023F5
:1011F000A4F81832E38A1BB2012B0FD10023E3823B
:10120000614B624A03F1340153F8040B42F8040BBA
:101210008B42F9D11B88138000F01EFD238B1BB27B
:10122000012B03D10023238300F016FDB4F80C3208
:101230001BB2012B04D10023A4F80C3200F0F6FC01
:10124000238A1BB2012B07D100F0FEFF002323826B
:10125000A4F8543004F02EFCB4F81E3245F2555276
:101260001BB2934204D10023A4F81E3200F0B2FB5B
:10127000B4F89C321BB2012B08D1B4F86830A4F842
:1012800096320023A4F89C3200F0D0FC638A1BB293
:10129000012B08D0A38A1BB2012B04D0B4F8543020
:1012A000C3F30B0353B1012300223B70A282384ADF
:1012B00038481370384A137001F0BEFA05F0DCF9B3
:1012C00005F06CFC05F032FA344B354E93F8008093
:1012D000B8F1010F1CD14FF0000983F8009004F021
:1012E00051FCB4F84C00B4F8421000B209B201F05D
:1012F00093F82C4A138801331BB2322B14DC138071
:1013000004F0F8FC284A13680133092B1ADC136037
:101310003388012B05D100F05FF90023338004F0FE
:10132000D9FA02F033FA65E7B4F81832A2F800905F
:101330001BB2012B08BF0523A6F8008008BFA4F844
:101340001A32DDE700232B801360B4F802321BB29F
:10135000012B01BF2B881BB243F001032B80B4F893
:1013600054301BB2002BD3D02B881BB243F00203A6
:101370002B80CDE700100240D0270020C80E0020AF
:10138000B00E0020261500206C070020D40E00208F
:10139000C11F0020DC1F0020C01F0020A40B002064
:1013A000A60B0020641500204C0A002072B6FEE750
:1013B00010B500249AB02022214603A8CDE90044AC
:1013C00002940AF008F83C2221460BA80AF003F820
:1013D00034484FF440334FF0A04EC0E900E30822F8
:1013E0000123C0E902440461C0E905320477437770
:1013F000036280F82430C0E90B4480F83840C463AD
:1014000080F8404008F014F808B1FFF7CFFF6946B4
:101410002448009409F0ACF808B1FFF7C7FF224C4C
:1014200020480623CDE9034305934FF07F0C0423A6
:10143000CDE906C303A90023089308F035F908B1E4
:10144000FFF7B4FF194A0923CDE90B2303217F23BA
:10145000CDE90D13042000230122CDE90F031392DF
:101460000BA980220F488DF850308DF851308DF83F
:101470005230CDE915228DF85C3008F013FE08B12A
:10148000FFF794FF7F21074808F090FC7F21054873
:1014900008F0D8FC7F210246024808F0DEFC1AB0B2
:1014A00010BD00BFE01E00201000C010020030047C
:1014B00000B599B02022002101A809F08CFF3C2240
:1014C000002109A809F087FF3D48DFF800C101228B
:1014D0004FF440330421C0E90521C0E900C342773D
:1014E0000023022180F838204FF48052C0E90233F3
:1014F00003610377016280F82430C0E90B33C263D3
:1015000080F8403007F094FF08B1FFF74FFFDFF895
:10151000C0E02B480623CDE901E302227F2304210A
:10152000CDE903230023CDE9051301A908F0BCF898
:1015300008B1FFF73BFFDFF89CC021480C2301A94D
:10154000CDE901C308F0B0F808B1FFF72FFF1D4A3D
:101550000923CDE9092303217F23CDE90B130420BF
:1015600000230122CDE90D03119209A9802214481C
:101570008DF848308DF849308DF84A30CDE9132286
:101580008DF8543008F08EFD08B1FFF70FFF7F2172
:101590000B4808F00BFC7F21094808F053FC7F2121
:1015A0000246074808F059FC054808F091FC022261
:1015B0000549034808F02CFB19B05DF804FB00BF97
:1015C000741E002004006008560A0020000100502C
:1015D0000800900C1000C010D0B51D4C2DED028BF2
:1015E000204608F0A5FA23681A4CD3ED107A9FED37
:1015F0001A7A94ED008AF8EE677AF0EE486A67EEA0
:10160000877A9FED167AD7EE876A16EE900AFEF774
:10161000C5FF0DA3D3E90023FFF718F8064618EE1F
:10162000100A0F46FEF7BAFF02460B46304639460F
:10163000FEF756FEFFF702FBBDEC028B084B206065
:101640000022A3F85620D0BD9A9999999999B93F4B
:10165000E01E00205C0A00200919B1420000803918
:10166000C80E0020F8B5214CB4F89A321BB2002BFA
:1016700032D1B4F86810B4F8963209B21BB2C91A64
:10168000B4F89822CF1712B2BD03D317880345EAE6
:101690009141FFF723FB638D1BB200B213BB144AC9
:1016A000A4F85A00B4F85A301188124D89B235F8AE
:1016B000111008B2118889B225F811301188002163
:1016C00011800D4A1168091A01FA83F31360136837
:1016D0001BB2A4F85230F8BDB4F89612B4F86830D2
:1016E00009B2CBE7404200B2D9E700BFC80E0020E4
:1016F000680A0020600A0020640A0020064B1B686C
:101700005B685B0607D54FF0A042136843F02003E7
:10171000136001F065BB7047E01E0020F0B5104C6F
:10172000104E40F273120020971E511ED51E34F841
:10173000123034F8177034F8111034F815501BB209
:101740003FB209B22DB2DB1B9B02491B93FBF1F3A5
:1017500046F820300130BE2802F10202E4D1F0BD8B
:10176000C80E0020B40B0020494BB3F8E02212B29F
:101770008242F0B556DCB3F8D82512B2824251DD70
:10178000BE25002102266A1A012A0ED06A1892FB91
:10179000F6F212B202F1B804640033F8144024B235
:1017A0008442B4BF11461546EDE701F1B80252007C
:1017B000384D33F8124055F8211024B20132001B85
:1017C00033F812204843801200FA82F0324F334E31
:1017D000B7F9004002B236F914C026F814200134DB
:1017E000664206F07F0604F07F0458BF74423C80D6
:1017F0002B4C21681546A1EB0C022A442949226092
:1018000042F3CF120A80821A002AB8BF5242B2F5C0
:10181000005F254A35DD2549B2F900000B88013308
:101820000B80F0BDB3F8E02212B2824208DDB3F8BB
:10183000E02212B2801A1E4A9042B8BF1046C5E795
:10184000B3F8DA25B3F8E272B3F8D815B3F8E0527A
:10185000B3F8D845B3F8DA6512B23FB224B209B290
:101860002DB2D21B001B9202491B92FBF1F2504396
:10187000801200FA86F047F6FF729042A8BF104629
:10188000A4E7B3F87E32C01A00B21080C9E700BFE7
:10189000C80E0020B40B00206A0A00206C0A002049
:1018A000700B00206C0B0020740B0020540A0020E9
:1018B00000C0FFFFF7B53B4E3B4FB6F818321BB2E6
:1018C000012B36D1394B3A4D1A684FF480214FF431
:1018D0000043CDE9003100212B46084604F0E8FA28
:1018E000B6F84E022B68B6F8504200B224B280FB24
:1018F000030147F6FF7384FB0345002C75F10003D9
:1019000002DAFF3445F10005220A42EA05622B1291
:10191000FFF7E4F93B681A6804468903D317A0036C
:1019200041EA9441FFF7DAF900B2A6F84C0003B09F
:10193000F0BD204B1968204B0A681B689A421F4B68
:101940002DDD1F4A18681268904205DA1A6802F104
:10195000FF1202F57F421A601B680A689B1A194A37
:101960001360194B12681B681B68D21A174B82FB55
:1019700003341A0E164B42EA04221A601968CB1778
:101980009C033B681A684FF47A7382FB0323880335
:1019900044EA9141FFF7A2F9FFF7E6FEC4E71A68AF
:1019A000D9E700BFC80E0020740900201C150020D4
:1019B0006015002070090020D81F0020701500203D
:1019C00014200020500A00206C090020006CDC026A
:1019D0005C1500201949F0B54FF4B873002240F2AD
:1019E000EE250C4610B221F813005E1C023356326D
:1019F000AB4221F8160092B2F4D1114E40F27312AC
:101A00000020971E511ED51E34F8123034F817707E
:101A100034F8111034F815501BB23FB209B22DB290
:101A2000DB1B9B02491B93FBF1F346F8203001308E
:101A3000BE2802F10202E4D1F0BD00BFC80E0020B2
:101A4000B40B002082B00023009342F20F71019387
:101A50000193019A824201DB02B070470093009A21
:101A60008A4203DD019A01320192F2E7009A0132C3
:101A70000092F4E770B5274D274B29681A6A0024B5
:101A80005C639C63DC631C624A6822F040024A602B
:101A900022494A6942F480524A6145F25552DC6358
:101AA00042F210709C635C631A62FFF7CBFF1C4B21
:101AB0002A681D6820202346402611684906FCD567
:101AC0001660D2F8801001380C44D5F8801080B22E
:101AD0000B440028F1D1134964090C601249A4F5A4
:101AE000E7645B09B4F5C87F0B6008D8B3F5E76F0E
:101AF00005D340F6C80083428CBF0020012007496F
:101B00004B6923F480534B61536843F040035360A7
:101B100070BD00BFE01E0020002C01400004004802
:101B2000741E0020B41F0020CC1F00202DE9F043BC
:101B3000204E214D306087B00446C4F3CC24894642
:101B400017462B6806F036FA0123049401A90024F5
:101B500002A803930593029406F010FB804606F05A
:101B60003BFAB8F1000F01D0002008E006F022FA9D
:101B7000C5F80090474505D106F02EFA012007B0C0
:101B8000BDE8F08331682B680020D3E9002306F01C
:101B90004FFA0028E8D132682B6812881B889A42D5
:101BA000EDD13368083333602B6808332B6008F1BC
:101BB0000108DFE7780B00207C0B002001EB4202DC
:101BC000401A914201D101207047435A21F8023B4B
:101BD000F7E7000010B5124C124821464FF4087286
:101BE000A4F50074FFF7EAFF4FF4807221460E4817
:101BF000FFF7E4FF0023A4F84630A4F84230B4F81D
:101C00004C20A4F848200120A4F86032A4F80C323B
:101C1000A4F810322382A4F85430A4F8A00210BD16
:101C2000C810002000F0010800F8010810B50124D8
:101C300084F31088882206490648FFF777FF18B119
:101C4000002080F3108810BD80F310882046FAE74A
:101C5000C810002000F0010810B5012484F310889A
:101C6000402206490648FFF761FF18B1002080F3C3
:101C7000108810BD80F310882046FAE7C80E0020B7
:101C800000F80108000000002DE9F84FFFF7A2FF5F
:101C9000D54CD649B4F800320A889A4200F0AD8299
:101CA0004FF4886204F5007009F08AFBFFF792FE9A
:101CB000CF4B00260122A4F80C621A70CD4923886C
:101CC0000A889A420AD04FF40072C74809F078FB9C
:101CD000C74B00260122A4F80C621A70C64BC74AF3
:101CE0001A60C74B4FF460021A60C64BC64A1B68A5
:101CF0001B68A3F560031360FFF710FDC34BC44AD4
:101D000003F1200153F8040B42F8040B8B42F9D184
:101D1000002345F610226383A280B4F80622E280F5
:101D2000B4F808222281B4F80A226281A4F8603251
:101D3000B4F848321B0404D4B4F848321BB2192B4F
:101D400002DD1023A4F84832B24B40F6FF721A604D
:101D5000B14B4FF400621A60B4F84832A0A1D1E947
:101D600000011AB2AD4BC3E90001AD4BAD490025EE
:101D70001D8001239340013B07EE903AB4F84A32AC
:101D80001BB207EE103AF8EEE77AB8EEC77AA64B28
:101D9000C7EE876A41F2883BB3EE0E7A66EE876A39
:101DA0009FEDA27A86EE876AF6EE006A36EE266A24
:101DB000BDEEC66A16EE102A1A80B4F84A321BB27B
:101DC00006EE103AB8EEC66A994BC7EE865A9FEDFA
:101DD000996A65EE865A85EE876A36EE266ABDEE0A
:101DE000C66A16EE102A1A80B4F84A321BB206EE02
:101DF000103AB8EEC66A904BC7EE865A9FED8F6ACE
:101E000065EE865A85EE876A36EE266ABDEEC66AAC
:101E100016EE102A1A80B4F84A321BB206EE103AB7
:101E2000B8EEC66A864BC7EE865A9FED866A65EEA7
:101E3000865A85EE876A36EE266ABDEEC66A16EECB
:101E4000102A1A80B4F84A321BB206EE103AB8EEE5
:101E5000C66A7D4BC7EE865A9FED7C6A65EE865A50
:101E600085EE876A36EE266ABDEEC66A16EE102A41
:101E70001A80B4F84A321BB206EE103AB8EEC66ABF
:101E8000734BC7EE865A9FED736A65EE865A85EEF0
:101E9000876A36EE266ABDEEC66A16EE102A1A80EA
:101EA000B4F84A321BB206EE103AB8EEC66A6A4B74
:101EB000C7EE865A9FED696A65EE865A85EE876A97
:101EC00036EE266ABDEEC66A16EE102A1A80B4F8FF
:101ED0004A321BB206EE103AB8EEC66A604BC7EE45
:101EE000865A9FED606A65EE865A85EE876A36EE01
:101EF000266ABDEEC66A16EE102A1A80B4F84A3277
:101F00001BB206EE103AB8EEC66A574BC7EE865AB9
:101F10009FED566A65EE865A85EE876A36EE266A2A
:101F2000BDEEC66A16EE102A1A80B4F84A321BB209
:101F300006EE103AB8EEC66A4D4BC7EE865A9FEDD4
:101F40004D6A65EE865A85EE876A36EE266ABDEEE4
:101F5000C66A16EE102A1A80B4F84A321BB206EE90
:101F6000103AB8EEC66A444BC7EE865A9FED436AF4
:101F700065EE865A85EE876A36EE266ABDEEC66A3B
:101F800016EE102A1A80B4F84A321BB206EE103A46
:101F9000B8EEC66A3A4BC7EE865A9FED3A6A65EECE
:101FA000865A85EE876A36EE266ABDEEC66A16EE5A
:101FB000102A1A80B4F84A32334A1BB206EE103A9D
:101FC000B8EEC66AC7EE865A25EE876AC6EE077A6D
:101FD00077EEA66AFDEEE66A58E000BFAFF3008038
:101FE0000EE1100EE1182041C80E00200000002074
:101FF000AB0B0020600700201C200020FFFF1F000B
:10200000D81F002070090020142000206811002033
:10201000281500209C0B0020A00B0020B80E0020EB
:10202000800B00202C1C00208E0B00200000B443ED
:10203000960B002000003442980B002000007042F4
:102040009A0B00200000B442820B00200000F042F6
:10205000840B002000001643860B00200000344350
:10206000880B0020000052438A0B002000007043C0
:102070008C0B002000008743900B0020000096434B
:10208000920B00200000A543940B002016EE903A1E
:102090001BB21380B4F84C2212B20A600A68584985
:1020A00053434FF4B47293FBF2F3564A0F68136034
:1020B000B4F804321BB2032B04BF4FF48043A4F8DE
:1020C00046304FF0500318BFA4F84650A4F84250D1
:1020D000A3834FF4A573A4F81A52A4F81852A4F8D5
:1020E0004E3242F24E73A4F8503240F6CC43658231
:1020F000A582A4F892324FF40053A38640F2333302
:10210000A4F84A30404BB4F84E02D3F800A03F4B3D
:10211000CAF800B01A683E4B136000B2B4F85022FF
:10212000A0FB0389C11703FB019912B212034FEA06
:102130000921D3174FEA082041EA1861FEF7CEFDC6
:10214000344B38601B684FF4FA721A60324B1B68CC
:10215000C3F800B0314B1B6844F620621A60DAF80D
:102160000000FEF709FA804638682D4F8946FEF7D1
:1021700003FA02460B4640464946FEF791FBFEF73E
:102180005DFDDFED286A284BA4F81C5207EE100A0B
:10219000C6EE877A1860254BA4F8405038464FF4B5
:1021A0007A61FDEEE77AC3ED007A00F049FB46F272
:1021B000A8111F4800F044FB46F2A8111D4800F08A
:1021C0003FFB4FF47A611C4800F03AFB4FF47A6110
:1021D0001A4800F035FBB4F880329FED190A19480F
:1021E0001BB2FB63B4F88232A4F854521BB23B64B6
:1021F00000F0A4FA3046BDE8F88F01265EE500BF86
:102200007C090020301C002074090020780900207F
:1022100011111100600900206409002068090020E4
:102220007821002000008046B01F00204C150020BF
:1022300038230020C8210020F0220020482200205E
:102240000000FA44DC1F0020014B00221A70704786
:10225000AB0B002007490B6C1A68920508D55A6829
:1022600042F400725A600A68136823F00103136095
:10227000704700BFEC2000201B4B1B6C1A689204B7
:1022800010B530D55A68194842F400525A60184ABD
:102290000168937854781B0203EB0443D4782344F9
:1022A000144C2360144B01241C704FF090440131F6
:1022B0006369016043F01003B1F57A7F636112DD59
:1022C00040F2E93303601378A62B0CD00B4AB2F826
:1022D00004321BB2032B01BFB2F854301BB243F4DB
:1022E0000063A2F8543010BD8C200020741500202B
:1022F000781500207015002069150020C80E0020F8
:10230000064B1B681A6822F001021A6004225A6008
:102310001A6842F001021A60704700BFEC200020EA
:10232000014B00221A6070476C150020054B1B689A
:102330003BB1054AB2F854301BB243F40063A2F833
:10234000543070476C150020C80E00202F4B2DE92B
:10235000F041DA6C2E4E42F00102DA64DA6C88B099
:1023600002F001020092009ADA6C42F00202DA6492
:10237000DA6C02F002020192019ADA6C42F0040275
:10238000DA64DB6C03F0040302930124029B03A9CB
:1023900010234FF090400225CDE90334CDE90544E8
:1023A00005F056FF4FF4825303A94FF09040CDE95A
:1023B00003344FF00008CDE9054505F049FF4FF41F
:1023C000006303A93046CDE903384FF48057CDE9C7
:1023D000054505F03DFF03A93046CDE90374CDE97D
:1023E000055505F035FF42463946304605F0FCFFFD
:1023F0004FF4804303A90748CDE90334CDE90545EF
:1024000005F026FF08B0BDE8F08100BF00100240D3
:1024100000040048000800482DE9F0472E4E2F4CDC
:1024200033782F4D012BA38D1BB20CBF43F040031B
:1024300023F04003A3852B78012BA38D1BB20CBF87
:1024400043F0800323F08003A385B4F85430C3F332
:102450000B0380460F46EBB1A38D1BB243F0020382
:10246000A385B4F8543013F4704FA38D1BB214BF7E
:1024700043F0010323F00103A385B4F8022212B252
:102480006AB9A38D1BB223F00403A385154B1A6010
:10249000BDE8F087A38D1BB223F00203E0E7B4F898
:1024A0004800B4F84C1000B209B202F0E7FDA38D69
:1024B0001BB268B923F00403A385638E1BB2012B02
:1024C000E6D1084A13680133632B0DDC1360DFE7A4
:1024D00043F00403F0E700BFA1150020C80E002060
:1024E000A0150020A815002065231360854A1368F5
:1024F0000133092BEADD002111608348834A03463A
:1025000094468E460131072932F8119022F81E9028
:1025100030F8119020F81E90F3D1A2F80E80C781F8
:10252000B2F80090B2F802A0B2F80480B2F806E067
:10253000178950899189D2890FFA8AFA0AFA89F99A
:1025400009FA88F808FA8EFE0EFA87F707FA80F083
:1025500000FA81F101FA82F2082192FBF1F26C4952
:102560006C4812B20A800122027000270A883CF8E7
:1025700017E012B20FFA8EFEA2EB0E02002AB5BFD0
:102580003CF817200A88B1F800E03CF817E0B4BF27
:1025900012B212B20FFA8EFEA2EB0E020A2AD4BFBA
:1025A00000220122002A00F0A78000220270628C23
:1025B00040F2323712B2BA42DCBF40F233326284A8
:1025C000628C42F2666712B2BA42C8BF6784A28CBC
:1025D000514F12B2BA42BCBF4DF69A12A284A28CDD
:1025E0004E4F12B2BA42A4BF4FF6CD42A2841F880A
:1025F000628C3FB212B2974236DB5F88628C3FB288
:1026000012B2974230DB9F88628C3FB212B297427F
:102610002ADBDF88628C3FB212B2974224DB1F892B
:10262000628C3FB212B297421EDB5F89628C3FB26E
:1026300012B2974218DB9F89628C3FB212B2974266
:1026400012DBDF89628C3FB212B297420CDB027858
:10265000012A09D1B4F8022212B2012A04D10A884F
:10266000E28501223270A2821E88A28C36B212B29A
:1026700096423FF70DAF5E88A28C36B212B29642F8
:102680003FF706AF9E88A28C36B212B296423FF751
:10269000FFAEDE88A28C36B212B296423FF7F8AE99
:1026A0001E89A28C36B212B296423FF7F1AE5E8915
:1026B000A28C36B212B296423FF7EAAE9E89A28C45
:1026C00036B212B296423FF7E3AEDA89A38C12B269
:1026D0001BB29A423FF7DCAE0378012B7FF4D8AEF1
:1026E000B4F802321BB2012B7FF4D2AE0B882386E2
:1026F00001232B70A382CBE60137082F7FF436AF7E
:1027000055E700BFA41500207C1500208E15002081
:102710009E1500208C1500209AD9FFFFCEFCFFFFEC
:10272000024A00231370024A13707047A01500205C
:10273000A1150020052006F077B870474FF48053AC
:102740004FF44052C0E9002305238360044BC3606B
:10275000002380ED040A036280F82C30704700BF2C
:10276000CDCC4C3E0000000037B504460698A3606F
:102770008242C4E9001284ED030A51DC8842A8BFFA
:102780000846D4ED047A80EE277A012384F82C30B1
:1027900000232362264BB3F90030022507EE903A5E
:1027A000F8EEE77A8B1A67EE277A1144FDEEE77AA6
:1027B00091FBF5F1401A93FBF5F3C4ED077A07EEB0
:1027C000103A07EE900AB8EEC77AF8EEE77A63613E
:1027D000C7EE877AA16117EE900AFDF7DFFE41ECA4
:1027E000100B08F003FE1349B1F9000007EE900A40
:1027F000F8EEE77A53EC102B17EE900ACDE90023A0
:10280000FDF7CCFEDDE90023FDF720FF06A3D3E9A9
:102810000023FEF745F8FEF7C9F9606203B030BD4A
:102820001046AEE7AFF3008000000000FA21094037
:10283000940B0020860B0020002380F82C3070477A
:1028400000234364C0E90633C0E90D31704700003E
:1028500013682DE9F0415BB900200021C2E906337D
:10286000C2E90A015364536313621363BDE8F08144
:102870005369411A9942916106DA5B429942C1BF9C
:102880000123536000239361D2E90F5C516B93697C
:10289000D668A94212DA614501DC002B12DDB6F5DB
:1028A0007A7F506CC9BF642103FB060096FBF1F1EF
:1028B00003FB0101CCBF5164506403E0002BEEDB4D
:1028C0006145EADD9168506C946BB6F57A7F01FB47
:1028D00003FE4FF06401C8BF48439EFBF1FE90FB2E
:1028E000F4F0C117C2E90A01D2E90A676FF00040AB
:1028F0000021B04271EB0708C2F820E002DAC2E919
:102900000A0106E013484FF0FF31864277EB0106DB
:10291000F5DB116BD06901EBC1011B1A0B44116986
:102920004B434FF47A7193FBF1F3916A13638E4436
:1029300073449D42B4BF55635363536BBCBF65433F
:1029400055646345BEBF04FB0CF4C2F834C0546444
:102950008CE700BF01000080CB6B48638342B8BFA7
:102960004B634A6B0B6C30B59A428A6BB8BF4B63B2
:1029700004460023C5175043C1E906330B62C1E981
:102980000A4548640B6330BD38B52C4C2C49B4F86B
:102990004820B4F84C3008682A491BB212B2D21A47
:1029A000294B1A601A68002A1A68B8BF524290422E
:1029B0000BDD264A126842B9254DB5F90020312AAF
:1029C000D5BF013201222A800A701A681B68002ACA
:1029D000B8BF5B42B3EB400F03DC1C4B1B68012B01
:1029E00003D11B4A00230B7013801A4B0A781A700C
:1029F000194B1A4D1B78194A012BB4F892320BBFB0
:102A00001BB243F34A13EB63EB630CBFB4F892328F
:102A1000B4F89232B4F86000B4F84C100CBF1BB29A
:102A200043F34A135B4209B200B22B64FFF710FF75
:102A3000B5F93430A4F85E3038BD00BFC80E0020B0
:102A4000D01F00206D1A0020C81A0020FC1A002098
:102A50008C1A00206E1A00209009002048220020C5
:102A600070B5464C464EB4F84830B4F84C00B4F853
:102A70000422444D12B2032A1BB200B203D1424ACF
:102A80001278012A0BD1414A00231370404A338047
:102A90001370404A2B7013703F4A137070BD3F4A49
:102AA00011780129114640D1B4F8B6221B1A12B28E
:102AB0009A4205DBB4F8B62212B252429A4234DD91
:102AC00000230B70638A0323A4F8043201F08AF90F
:102AD000B4F840301BB2012B02BF314B00221A6008
:102AE0002A4A002313702A4A13702A4A13702A4A6A
:102AF0001370B4F84820B4F84C3012B21BB29A42AA
:102B00002EDA01233380274A2B701360264A136084
:102B1000628A12B232B9B4F85420C2F30B020AB975
:102B2000A4F80232214B00221A70B4F84830204A2F
:102B30001BB21360B6F90030012B04BF144A1370A6
:102B40002B781C4A012B17D1B4F802321BB2012B8F
:102B500012D1136001F09EF9BDE87040FFF714BF79
:102B6000B4F84820B4F84C3012B21BB29A42DCDD03
:102B7000022333800123C6E70023EAE7C80E0020C2
:102B8000B00B0020AD150020B00E0020A80B0020D7
:102B9000AC0B0020AD0B0020AE0B0020AC150020CC
:102BA000801B0020F022002048220020AE150020CB
:102BB0003C1B0020EC1A002007EE900A9FED050A4E
:102BC000054BF8EEE77A67EE807A93ED000A27EE80
:102BD000800A704700404E3F840900204FF0A0411A
:102BE000624BD1F880001B682DE9F041C01AFFF755
:102BF000E3FF9FED5F7A5F4B5F4D604C604E20EED0
:102C0000470ABDEEC00A10EE102A1A805D4BD3F8B9
:102C100080005D4B1B68C01AFFF7CEFF5B4BD1F8FD
:102C20008000D3ED007A20EE670ABDEEC00A10EEF8
:102C3000103A1AB2564B1A80564B1B68C01AFFF74F
:102C4000BBFF554B5549D3ED007A55482A8020EEFD
:102C5000670ABDEEC00A10EE103A1BB20B80514954
:102C60000B80D118494209B207EE901AB8EEE71A64
:102C700007EE902AF8EEE70A07EE903AB8EEE70A78
:102C800081EE071A2180C0EE870A80EE070A04F061
:102C9000E5FAB4F90020B5F90000434C434D831820
:102CA0005B4244F6E711801A2360FDF7C8FA2768F3
:102CB0002B68DFF820C13E4ADFF81CE12F60FB1AC9
:102CC0001360DCF800303B4DCCF80000C11A3A4BE1
:102CD00030601960DEF80010D2F8008001FB08F1C6
:102CE0001160DEF8002019684A431A60286880B233
:102CF00003F05EF90746286880B203F069F931688D
:102D00008046FDF79CFA216805463846FDF797FA9C
:102D100021682D1A4046FDF792FA3168044638467C
:102D2000FDF78DFA254B26491A88264B12B220440E
:102D3000254C2AB1254A1268012A18BFB1F804228D
:102D4000256018601A68224B1B689203186892FB72
:102D5000F0F212B2A1F8942223689B0393FBF0F3E4
:102D60001BB2A1F84E30BDE8F08100BFC81F0020A3
:102D700000007A44981A0020921A0020961A002027
:102D80006821002000010050CC1F00208C09002089
:102D9000941A0020B41F002088090020901A0020F7
:102DA000D02700208E1A002070210020BC1A00209D
:102DB00054210020081500209022002050150020EA
:102DC000C80E00209C1A0020A01A002038230020E2
:102DD00064090020C01A00209409002000000000AF
:102DE0002DE9F04F4FF090422DED088B936943F49D
:102DF0000043936185B002F0DFFEFFF7EFFEFFF7BF
:102E00009CFC724B1B881BB2002B7FD0704B714D0A
:102E1000B3F80412704EDFF8FC81704FDFF8F891C0
:102E2000DFF8F8A19FED6E9ADFED6E9A09B21C46AD
:102E3000002940F08B80B3F8603231604FF4526269
:102E400013FB02F3642293FBF2F303F5526292B296
:102E5000B2F5D25F88BF4FF43D63634A01921BB263
:102E600013601368D8F800002B6080B203F0A0F85C
:102E70000446D8F8000080B203F0AAF82146834641
:102E80003068FDF7DCF9594600902868FDF7D7F95E
:102E9000009B18443860306859464042FDF7CFF92E
:102EA000214606462868514CFDF7C9F99AED000AFB
:102EB000304420EE099A07EE900A97ED000AC9F80F
:102EC0000000F8EEE70AB8EEC00A60EE890A20EECC
:102ED000090A4748C0EEA90A80EE290A04F0C5F99C
:102EE000D8F80030B4F900404249019A18B284423F
:102EF0000880414C24DD208803440B801268B1F91E
:102F000000103E4802F0D6FA02F00CFE3C4A13785C
:102F100083F00103137004F0ADF904F06DFA04F0CE
:102F200001FB384A13680133052B00F38C831360CF
:102F3000354B0022DA6005B0BDEC088BBDE8F08FA0
:102F4000B4F90040A042D9DD1B1BD6E7B3F8043228
:102F50001BB2012B15D0B4F804321BB2022B04D0E3
:102F6000B4F804321BB2032B25D1B4F87032A4F8A4
:102F70006E32264BB4F86E225B6B13441BB2A4F87E
:102F80004230B4F854321AB2012A49D1A4F80232BC
:102F9000A4F804321E4B1A88322A94BF0132002250
:102FA0001A801B88192B8CBF4FF448634FF2803373
:102FB000A4F8423075E0B4F804321BB2042B0ABF07
:102FC000124B0023B3F93430D9E700BF501500206D
:102FD000C80E0020B41A0020B01A0020A81A002041
:102FE0003ACD133F0000524548150020800B0020C9
:102FF000D027002080230020940B0020002C0140CB
:103000006C1A0020D81A0020003C0040F02200205A
:10301000E41A002008150020AC1A00205C0A0020E9
:10302000B4F854321BB2032B40F0C0810123CA4ACA
:10303000A4F80232A4F804321078C84B00F0FF0163
:1030400020B91980A4F8C010A4F8C210198809B2D8
:10305000012900F05B81022900F06981002940F01C
:103060007381012111704FF40052A4F84220B4F88A
:10307000502012B2B2F54D7FA1BFB4F8C020283263
:1030800012B2A4F8C020B4F8502042F2333112B288
:103090008A4206DD1A88013212B21A800023A4F88F
:1030A000C230AF4AB4F894321268DFEDAE5A1268FB
:1030B000DFF8DCB29FEDACAA9BED0D8ADBED0C8A4C
:1030C000DFEDAA4A1BB24FF48041534393FBF1F367
:1030D00007EE903AB4F84230B4F84E00F8EEE77AD2
:1030E00000B21BB21B1A87EEA57A534393FBF1F390
:1030F0009F4807EE903AF8EEE77AB4F84E30B4F80D
:1031000094C2C7EEA5AA1BB20FFA8CFCDBED0A7ABB
:103110003AEE47AAB0EE486AAAEEA76AEAEE278A14
:1031200006EE902A07EE903AF8EEE66AF8EEE77AB5
:10313000904B80ED006A67EEA67ADFED8F6A93ED23
:10314000007A9BED038A67EEA67A02FB0CF2C7EECB
:10315000A56A92FBF1F2B7EE00BA76EEC77AA7EE57
:10316000A47A07EE902AF8EEE77A83ED007A87EEEC
:10317000A55A824BF0EE476A93ED007ADBED015AD7
:1031800075EE477AA7EEA47A83ED007ADBF86C300F
:10319000F0EE477A93ED007A794B27EE088A67EED6
:1031A000877A83ED008AA5EEA78ADAED007A67EECA
:1031B000897A38EE068A8BEE276A27EE667A80EDEA
:1031C000008AE7EE258A28EE068A68EE868A28EECF
:1031D000080AA8EEA80A08F041FADFED6A7A87EE3D
:1031E000800AB4EECB0AF1EE10FA40F127819BED94
:1031F0000C7ADFED656ADBED0D7A27EE267A68EE54
:10320000808A28EE008A67EEA67A8BED0C7A28EE8B
:10321000298A68EEA98ABDEEC88AFDEEE88A18EE12
:10322000103A1BB22B6018EE903A584ACBED0D7A4B
:103230001BB2336013685B421360D8F8000080B2A1
:1032400002F0B6FE8346D8F8000080B202F0C0FE5D
:10325000014600903068FCF7F2FF59468046286826
:10326000FCF7EDFFA8EB0000386059463068FCF72A
:10327000E6FF009B064619462868FCF7E0FF30444D
:1032800007EE900A9AED000AC9F80000F8EEE70A86
:10329000D7ED007A3E4820EE099AB8EEE70A60EED4
:1032A000890A20EE090AC0EEA90A80EE290A03F075
:1032B000DCFF38493868D9F80050FCF7B9FFD9F875
:1032C0000030354AC618002DA3EB00004FEA660611
:1032D000D4BF00230123401048BF0233002EB8BFE3
:1032E000043313602D4A13802D4A15602D4A166051
:1032F0002D4A013B1060052B00F21A81DFE813F024
:10330000B100F500FC0003010A0111014FF4604215
:10331000A4F84220B4F8502042F2323112B28A426C
:10332000DFBFB4F8C220283212B2A4F8C220B4F829
:10333000502040F2323112B28A423FF7B2AE1A88C0
:10334000013212B21A80ACE60023A4F85432A4F879
:1033500042301370A5E600BFC00E002066150020A5
:103360006409002000007A4400000000CDCCCC3D70
:10337000841A0020641A002000008038601A00209F
:10338000881A00206666663FA4707D3F940900207D
:10339000D027002068BB0100A41A002024150020BB
:1033A00050210020C021002064210020B4F85432B4
:1033B0001BB2042B2AD10123AD4AA4F80232022306
:1033C000A4F80432138801339BB2632B138001D815
:1033D000002304E0B3F5167F04D24FF48053A4F821
:1033E00046305EE640F24B418B42F1D9B3F5C86FEF
:1033F00002D24FF47043F2E740F2A3618B424FF0E8
:10340000000384BF1380A4F85432E8E7B4F84220E4
:10341000B4F8803212B21BB29A42C4BFB4F8803200
:10342000A4F84230B4F84220B4F8823212B21BB28F
:103430009A42BFF636AEB4F88232B9E59FED8D7A86
:10344000DBED0B7A67EE877A9BED0C7AAAEE277A92
:103450008BED0C7A9BED0D7AAAEEA77AF0EE477A07
:10346000D5E6C6F552631B1A5B10F2188118B4F842
:103470001A0200B218B9804D2860804D2860B4F857
:103480001A0200B2042804D0B4F81A0200B20528C7
:103490000DD17A480568043505600568B5F57A7F71
:1034A00005DD00250560744D286801302860B4F8FA
:1034B0001A0200B2042840D040F6753022EAE272C7
:1034C000824221EAE17123EAE373A8BF0246814206
:1034D000A8BF01468342A8BF03466948C36345F2BB
:1034E00055538163426303620EE505F55261891B02
:1034F00049104B1BF218BAE700F552635B1B5B10D7
:10350000E9180A1AB3E7C0F552622A44521081182A
:103510004B1BACE7C5F5526232445210931BE918BD
:10352000A5E706F55261014449100A1A931B9EE76C
:103530004FF4D26319461A4699E7524B1A68013282
:103540001A601A68002A20DB00221A604E4B1A68A3
:10355000632A17DC4D4A1968B2F900204C485242E0
:1035600040F821204B491A68B1F9001064324942F1
:1035700040F8221048491A68B1F90010C83249428F
:1035800040F822101A6801321A603B4B1B68C82BA6
:1035900054DD3F4DD5F88C01D5F80890D5F88C81D5
:1035A000FCF7EAFF0646A9EB080001F10047FCF72B
:1035B000E3FF02460B4630463946FDF771F941EC10
:1035C000100B07F06FFF28A1D1E9000153EC102B7D
:1035D000FDF766F9314B06460F46C3E90067024620
:1035E0000B4600202E49FDF75BF92E4BC3E9000185
:1035F0000023A4F81A32D5F88C212B4B02EB42029F
:1036000093FBF2F31BB2A4F840320022274BB4F82C
:10361000405230463946FDF719F82DB20646284685
:103620000F46FCF7A9FF02460B4630463946FDF728
:103630000DF8FDF7E3FA00B2A4F8420240F61F537A
:103640001946012249E700231360194A136904A8A7
:1036500043F008031361032340F8083D04F0CAFE59
:1036600066E400BFAFF30080F168E388B5F8043F7B
:10367000E41A0020ACC52738C41A0020E01A002044
:10368000002C0140681A0020B81A0020901A00206F
:10369000B0150020941A0020981A0020701A0020FB
:1036A0000000F0BF781A002000366E0100408F4005
:1036B000000401402E4B2F48B3F802222E4912B2CB
:1036C000012A4BD1B3F8042212B2012A12D0B3F866
:1036D000042212B2042A0DD0B3F8042212B2022A34
:1036E00008D0B3F8042212B2032A37D1234A127841
:1036F000002A33D1012202600A60B3F80222204876
:1037000012B2012A2CD1B3F8041209B2042927D12C
:103710000260B3F802221B4912B2012A22D1B3F887
:10372000042212B2022A07D0B3F8042212B2032AEA
:1037300018D1124A1278AAB901220A60B3F80222FB
:10374000114912B2012A0FD1B3F804321BB2032B74
:103750000AD10A4B1B783BB90A6070470022CAE7BE
:103760000022D5E70022E8E700230B60704700BF86
:10377000C80E002038230020C82100206D1A002028
:1037800078210020F022002048220020464B4749A3
:10379000B3F84C22464812B2F0B50A60B3F8A06202
:1037A000444D454C4549464A464F36B29EB3464B7A
:1037B000B3F91060AE60B3F91260EE60B3F916C0F1
:1037C000C5F814C000262E61B3F90850A560B3F9FE
:1037D0000A50B3F902E0C0F808E0C4E90356B3F9AF
:1037E0000E506561B3F904500424C1E902E5C1E952
:1037F0000464B3F918109160B3F91A10D160B3F9E9
:103800001C10B3F91E304461C0E9035611615361C5
:10381000C7F800C0F0BDB3F8B0C20FFA8CFCC5F811
:1038200008C0B3F8B2C20FFA8CFCC5E903C6B3F8FE
:10383000B6C20FFA8CFCC5F814C0B3F8A8522DB26A
:10384000A560B3F8AA522DB2C4E90356B3F8AE523C
:103850002DB26561B3F8A24224B28460B3F8A442E9
:1038600024B2C0E9034604244461B3F8A2024C61C7
:1038700000B28860B3F8A40200B2C1E90306B3F84D
:10388000B81209B29160B3F8BA1209B2D160B3F8B4
:10389000BC1209B21161B3F8BE12B3F8B63209B264
:1038A0001BB251613B60B5E7C80E00202C1C002004
:1038B0003823002048220020F0220020C8210020C8
:1038C00078210020D01F002028150020A54A536928
:1038D00043F0080370B553614FF09042A24C936AD5
:1038E00043F01003936202F065F9A04A1368B3F540
:1038F000FA6FBCBF01331360FDF7B4FEB4F80432B5
:103900001BB2042B4CD1638D99499A4A1BB2002BF0
:1039100077D1B4F844300B80B4F85A301380B4F83F
:103920008432954D1BB2EB63B4F88632B4F84C0088
:103930001BB22B64B4F88C3200B21BB298426ADD21
:103940000023EB63B4F84C00B4F88E3200B21BB223
:10395000984270DA00232B6408881188864A09B2DD
:1039600000B2FEF775FFB5F93430A4F85E30B4F854
:1039700040301BB2042B08D0B4F840301BB2052BEA
:103980000ED17E4B1B78032B0AD17D4B00221A608F
:10399000B4F84C30A4F86030B4F84C30A4F8483097
:1039A000FFF788FE774A13680133002B52DC13605F
:1039B000FEF7A6FCB4F804321BB2032B0AD0B4F80D
:1039C00004321BB2022B05D0B4F804321BB2042B14
:1039D00040F09180B4F804326B4D1BB2012B09D03A
:1039E000B4F804321BB2032B04D0B4F804321BB277
:1039F000062B45D1B4F86230B4F85E2013441BB2F4
:103A000015E1B4F844305B421BB20B80B4F85A3075
:103A10005B421BB282E7B4F88C32B4F84C001BB2A4
:103A200000B2A3F5CC7383428CDCB4F842301BB2F5
:103A3000002B85DC86E7B4F88E32B4F84C001BB25C
:103A400000B203F5CC73834286DBB4F842301B042A
:103A500080D481E7002010604C4B4D4A0121197041
:103A600013880B441BB2322BC9BF4A4B1380108002
:103A70001980FDF71FFF02F029F8FEF7F1FF97E725
:103A8000B4F804321BB2042B40F09280B4F85E30DC
:103A9000A4F85C3001232B60B4F85C20B4F88432C5
:103AA00012B21BB29A42C4BFB4F88432A4F85C309C
:103AB000B4F85C20B4F8863212B21BB29A42BCBF92
:103AC000B4F88632A4F85C30638CB4F88032A38CEE
:103AD000B4F88232B4F880322B4A1BB2EB63B4F8EC
:103AE0008232B4F85C00B4F850101BB209B200B2D4
:103AF0002B64FEF7ADFEB4F80222274B2748284975
:103B000012B24AB11A78012A06D00278012A03D0EB
:103B10000A78012A40F0238100221A70B4F8043296
:103B2000204D1BB2022B2A6004D0B4F804321BB221
:103B3000012B04D10023A4F84630A4F84230B4F895
:103B400054301BB21BB1B4F84C30A4F84830164BBB
:103B500000241C6004700C7001F090FB134B1C607F
:103B600070BD00BF00040140C80E002058150020A1
:103B7000C40E0020C20E002078210020681500200D
:103B8000EC1A0020D41A0020F0220020A40B002000
:103B900064150020A60B0020B00E0020C11F0020DD
:103BA000C01F0020D01A002048150020B41A0020A1
:103BB000B4F804321BB2022B7FF46EAF7E490B784F
:103BC000022B45D1638D7D487D4A1BB21BBBB4F8E7
:103BD00044300380B4F85A3013800388128813F4F9
:103BE000004F038812B21BB224D19A4207DCB4F80A
:103BF0004C20B4F88C3212B21BB29A4215DD03236A
:103C00000B700423A4F80432B4F842006D4900B2EA
:103C1000FEF7A2FE40E7B4F844305B421BB20380DB
:103C2000B4F85A305B421BB2D6E7B4F84A30A4F875
:103C30005C3031E79A42E2DBB4F84C20B4F88E32C3
:103C400012B21BB29A42DADBB4F84A305B42D6E6D3
:103C5000B4F81C321BB213B9B4F84630E7E7B4F835
:103C60001C321BB2012B18D1B4F84C2040F2656114
:103C700012B28A42544A06DC1360B4F84630126825
:103C800012FB03F3BBE6B4F84C3043F69A111BB2B7
:103C90008B42F2DD4FF0FF33EEE7B4F81C321BB27B
:103CA0000B2B3AD1B4F86420B4F8E03212B21BB254
:103CB0009A4218DA444B01221A60B4F8463043485D
:103CC0004349026813F4004FB4F8463018BF5B4212
:103CD000B2F57A6F1BB212DC013202600A78012A57
:103CE0003BD1394ACBE7B4F86420B4F8583312B268
:103CF0001BB29A42E1DD344B4FF0FF32DCE7002289
:103D00000260344A107800F0FF0618B90E700020E7
:103D10001070E3E701200870F9E7B4F81C321BB219
:103D20000C2B0AD1B4F86420B4F8E03212B21BB202
:103D30009A4212DD4FF4604379E7B4F81C321BB2AB
:103D40000D2B0AD1B4F86420B4F8583312B21BB268
:103D50009A4202DA4FF4005369E7002367E7B4F8A8
:103D6000022212B2012A7FF4FBAE1B78002B7FF4F3
:103D7000F7AE194B1A68022ADCBF01321A601B68C1
:103D8000164A0021012B11607FF4EAAEB4F8043228
:103D90001BB2022B04D0B4F804321BB2012B04D1A5
:103DA0000023A4F84630A4F842300D4B0022BDE8B1
:103DB00070401A6001F0A6BB68150020C40E0020F8
:103DC000C20E00207821002080090020DC1A00208B
:103DD000801A0020411D0020D01A0020CC1A00209B
:103DE00048150020224BB3F8042212B2032A0FD147
:103DF000B3F8462012B2012ADCBF0222A3F8462003
:103E00009A8E12B2B2F5006FBCBF4FF400629A8670
:103E1000184A1268B3F8462012B207EE902A164AE2
:103E2000F8EEE77AD2ED006A144A87EEA67ADFED63
:103E3000146A82ED007A9B8E124A1BB2126807EE5A
:103E4000903A92ED007A104BF8EEE77AB8EEC77A26
:103E500067EEA67A6FF0630267EE277A9FED0B7A22
:103E600067EE877AC3ED007A094B1A60704700BF8E
:103E7000C80E0020FC1A0020B01F0020981B002054
:103E800000007A4460090020241B002000008038D4
:103E9000481B00202DE9F74F1249134A134B0B60C2
:103EA000B2F900300091012B114F124D124C134EFC
:103EB00030DC01331380B7F84C30114A11491BB282
:103EC00013600B601368104A1360104A2B600021C6
:103ED00000232360336011600D4A136003B0BDE816
:103EE000F08F00BF2C1B00204C1B00200000204145
:103EF000C80E0020681B00209C1B0020201B0020F7
:103F00003C1B0020481B0020381B0020801B002089
:103F1000FC1A0020C94B1A689B46D2B9C84B1A78C4
:103F200002F0FF03AAB9B7F84C20C649C64812B23E
:103F30000A6002600A68C5490A602A60C44A2360B0
:103F400033601360C34A1360C34A00211160C34A3F
:103F50001360C34B1B68012B07D1DBF8003023B97A
:103F6000B7F84C30BF4A1BB21360B7F84030BE4AB6
:103F70001BB2022B08D11368022B05D0B64B0021CF
:103F80001960B24B29681960B7F840301BB2136052
:103F9000DBF80030012BB7F84C301BB240F0BA8789
:103FA000B249DFF8A0820B60B7F840301BB22BB1EA
:103FB000B7F840301BB2052B40F0BC8640F6CC432E
:103FC000A7F89232A04B1A68D8F800309A4200F055
:103FD0002C81A74A9D481368DFF8D4A201331360EF
:103FE0009E4B01221A609C4BA24A4FF0000CC3F872
:103FF00000C0D4ED007AF8EEE77AC2ED007A0B68E3
:10400000036003682B60D8F8003001685B1A07EE84
:10401000903A9949F8EEE77AC1ED007AD8F8003085
:10402000D0F800E0A3EB0E03002BB5BF0368D8F86F
:104030000030D8F8000000681B1A07EE903A8F4B4A
:10404000F8EEE77AC3ED007AD1ED007A8C4BF5EE0D
:10405000C07AF1EE10FACCBF4FF07E50894818605C
:1040600092ED007ADFED887A884BB4EEE77AF1EED4
:1040700010FA06DDD1ED007AF5EEC07AF1EE10FA15
:1040800011DC92ED007ADFED827AB4EEE77AF1EEA0
:1040900010FA40F1E881D1ED007AF5EEC07AF1EE48
:1040A00010FA40F1E08100211970D2ED007AF0EEB3
:1040B000E77ACAED007A774BDFF8049293ED007A45
:1040C000D3ED007A99ED006ADFF8F8C1694ADFF8AC
:1040D000F8E171487149F6EE006A27EE267A27EE7C
:1040E000277AC7EE067ACCED007AD3ED005A93ED2D
:1040F000007A92ED005AD2ED007A99ED006A67EEEF
:10410000C57AE5EE877A67EEA67A87EE867A8EED37
:10411000007A92ED007AD2ED007A99ED006A604A59
:1041200027EE267A27EE277AC7EE067AC2ED007AC6
:10413000DCED007A9EED007A5A4A77EE877A9FEDA1
:10414000647AC0ED007AD3ED007A67EE877AC2ED2B
:10415000007A4A4A92ED007AD0ED007AB4EEE77A1E
:10416000F1EE10FA40F386814FF0030881F80080E9
:104170004349DFF85881D1ED006A9EED007ADFF8FF
:10418000CCE0DEED007AF8EEE77AE6EE877AC8ED6D
:10419000007A92ED007A9CED005AD1ED005ADEEDE6
:1041A000007A91ED006A009937EE457AF8EEE77AE9
:1041B000D1ED006A3C49E7EE257AE6EE667AC1ED7C
:1041C000007A2049D1ED007A3849F8EEE77AC1ED5E
:1041D000007A3749D3ED007A91ED007AD9ED006A83
:1041E000344977EEC77A87EEA67A81ED007A92EDB0
:1041F000007AD0ED007A93ED006AD1ED006A2E4A84
:1042000037EE677AC7EE067A77EEA67AC2ED007AC5
:1042100093ED006AD9ED006A92ED007A274BC6EE65
:10422000267A77EE877AC3ED007A0C480A4BD0F8ED
:1042300000C0BCF1010F01464CE000BFEC1A0020A9
:10424000B00E00203C1B0020481B0020381B002023
:10425000181B0020E81A0020801B0020FC1A0020F8
:10426000F01A0020F41A0020F81A00205C1B00202D
:104270006C1B00208C1B0020441B0020401B0020D6
:10428000281B0020000080BFCDCC4CBE311B00207D
:10429000CDCC4C3E981B0020101B0020301B002072
:1042A0000C1B0020081B0020541B0020581B002062
:1042B000901B0020701B0020781B00207C1B00201E
:1042C000241B0020041B0020141B0020501B002076
:1042D0006F12833940F02285D3ED007A1FED047A06
:1042E000DA4A77EE877AC3ED007A92F800E0BEF101
:1042F000030F40F09E82D64AD648D2ED007ADFF80E
:1043000064E3F5EEC07AF1EE10FA0DDDDFF884C358
:10431000DCED007ADFF888C3FDEEE77ADCF800C058
:1043200017EE908AE04516DCD2ED007AF5EEC07A01
:10433000F1EE10FA40F1B681DFF858C3DCED007AF7
:10434000DFF85CC3FDEEE77ADCF800C017EE908A78
:10435000E04580F2A781DFF834C393ED007ADCED0D
:10436000007AB4EEE77AF1EE10FA40F11281BA4920
:10437000DFF824C391ED007AB849DCED005A93EDE3
:10438000006AD1ED007AD3ED004A93ED005AD2EDE8
:10439000006A67EEA47AB8EEC77A67EE857AB6EE61
:1043A000005A67EE857AE5EE867AA7EEA67AFDEEEC
:1043B000C77AC5ED007A91ED006AD3ED006ADCEDB5
:1043C000007A92ED007AE6EE267ADFEDA56A67EED6
:1043D000877AFDEEE77AC4ED007A92ED007AD1EDAE
:1043E000007AA04A27EE277A0021C7EE267AFDEE52
:1043F000E77AC6ED007A11701A689B4B1A609B4AE7
:1044000092ED006A954AD2ED006A93ED007AC6EE0D
:10441000267A77EE877AC0ED007A954B1A68954B2D
:104420001A60954BDBF800201A602B681BB2A7F8C6
:104430006030D4ED007A914BF8EEE77A93ED007A94
:1044400067EE877A4FF4FA72FDEEE77A17EE903A4C
:104450001BB2A7F8623033689B0393FBF2F31BB2E5
:10446000A7F870323AE501211970C2F800C0CAF805
:1044700000C020E6824B92ED007AD3ED007A814BAA
:10448000B4EEE77AF1EE10FA67DD0220087092EDE3
:10449000006A99ED007ADAED007ADAED005A0193BC
:1044A00067EEA67A67EEA57AE6EE077A17EE900A2F
:1044B000FCF774F841EC100B06F096FF51EC100B72
:1044C000FCF7BCFB704A71491060D2ED007A9AED9E
:1044D000007AD9ED006A009B77EEC77A87EEA67A5C
:1044E00081ED007A92ED006AD9ED006A91ED007AD3
:1044F0006749C6EE267A77EE877AC1ED007AD2ED6B
:10450000004A92ED005A9AED004ADAED007A5049DD
:10451000514AD1ED006A99ED007A1268D1ED005A46
:1045200093ED006A019B67EEC47AE4EE857A67EE4C
:10453000A67A77EE076A87EEA67A07EE902AF8EE5B
:10454000E77A77EE277AE5EEC67AC3ED007AD8ED02
:10455000007A504BF8EEE77A65E601200870D2ED5C
:10456000007A4D49494AD1ED006A77EEA77A87EE85
:10457000A67A82ED007AD1ED006A92ED007A474A80
:10458000C6EE877AC2ED007AD8ED007AF8EEE77AC7
:1045900049E63649D2ED006AD1ED005A93ED007A32
:1045A0009CED006ADFF8DCC066EEA56ADCED007AFF
:1045B00037EE467AE6EE877AFDEEE77AC5ED007AC9
:1045C000D2ED007AF5EEC07AF1EE10FA13DDDFF8E5
:1045D000C4C0DFF8CC80DCED007AD8F80080FDEEB6
:1045E000E77A17EE909AC145BEBFDCED007AFDEE8A
:1045F000E77AC5ED007AD2ED007AF5EEC07AF1EEF9
:1046000010FA13D5DFF88CC0DFF89480DCED007A67
:10461000D8F80080FDEEE77A17EE909AC145C2BF48
:10462000DCED007AFDEEE77AC5ED007AD2ED007A96
:1046300091ED007A67EE877A0022FDEEE77AC4ED0D
:10464000007A32608EF80020D6E600BF301B0020D2
:10465000281B00207C1B0020381B0020241B00206E
:104660000000FA4590090020841B0020981B0020C0
:104670003C1B0020481B0020F01A0020B01F002027
:104680000C1B0020501B0020A41B0020701B0020CE
:10469000781B0020541B0020901B00201C1B0020B6
:1046A0005C1B002093ED007AD0ED007ADFF86CC33C
:1046B000B4EEE77AF1EE10FA40F19C80D2ED007A88
:1046C000F5EEC07AF1EE10FA0BDDDCED007AC249AE
:1046D000FDEEE77AD1F8008017EE901A6439414573
:1046E00014DCD2ED007AF5EEC07AF1EE10FA40F16A
:1046F0003D82DCED007AB849FDEEE77AD1F8008022
:1047000017EE901A6431414580F23082B349DFF8E8
:1047100010C3B348D2ED005A9CED004A93ED006AF5
:10472000D1ED004AD0ED007AAE48D2ED006AD0ED6E
:10473000002A93ED005A91ED003A93ED007AD1ED05
:10474000003A35EE435A66EEA26A37EE637A66EEB9
:10475000856A65EE845A27EE667A76EE646AE5EE3F
:10476000A67AF6EE006AE7EE267AFDEEE77AC5ED68
:10477000007A92ED006ADCED006A92ED007A90ED2D
:10478000005AD3ED007AD1ED005A27EE057A77EE84
:10479000E57A002167EEC77AE6EE267ADFED926AC7
:1047A000FDEEE77AC4ED007A92ED007AD0ED007A62
:1047B0008E4827EE677AC7EE267AFDEEE77AC6EDD9
:1047C000007A0170D2ED007A2268F5EEC07AF1EE3F
:1047D00010FA0CDD8A42BFF620AE854A21603160B6
:1047E00012681A60834B59640123037015E6002A8E
:1047F000F3DC12E6DCED007A7F4ADFF8F881012075
:10480000FDEEE77A10600022C5ED007AC8F844207A
:10481000226032600A6000221A60784A8EF8000036
:10482000137883427FF4F9AD02231370A7F80432A2
:10483000F3E592F800E0BEF1020F40F0BD81704A4E
:104840007048D2ED007AF5EEC07AF1EE10FA0DDD87
:10485000DFF8C4C1DCED007ADFF87CC1FDEEE77A59
:10486000DCF800C017EE90EAE64516DCD2ED007ADF
:10487000F5EEC07AF1EE10FA40F1D680DFF898C17B
:10488000DCED007ADFF850C1FDEEE77ADCF800C01D
:1048900017EE90EAE64580F2C7805B4993ED007A17
:1048A000D1ED007AB4EEE77AF1EE10FA7FD55749F0
:1048B000DFF870C191ED007A4A49DCED005A93EDC2
:1048C000006AD1ED007AD3ED004A93ED005AD2EDA3
:1048D000006A67EEA47AB8EEC77A67EE857AB6EE1C
:1048E000005A67EE857AE5EE867AA7EEA67AFDEEA7
:1048F000C77AC5ED007A91ED006AD3ED006ADCED70
:10490000007A92ED007AE6EE267ADFED376A67EEFE
:10491000877AFDEEE77AC4ED007A92ED007AD1ED68
:10492000007A27EE277AC7EE267AFDEEE77AC6ED03
:10493000007A2A4A1B681360D4ED007A344B294967
:10494000F8EEE77AC3ED007AD3ED007AF5EEC07A9F
:10495000F1EE10FA48BF93ED007ADFED2E7A44BFF6
:1049600037EEC77A83ED007AD3ED005A91ED006AF5
:10497000D2ED006A85EE867A002237EE267A80ED47
:10498000007A94ED007AB8EEC77A83ED007A93ED61
:10499000007AB5EEC07AF1EE10FA42BF93ED007ADC
:1049A00077EEC77AC3ED007A104B1A7035E51A49D5
:1049B000D1ED007AFDEEE77AC5ED007AD2ED007A0E
:1049C000134A92ED007A67EE877A0022FDEEE77ACD
:1049D000C4ED007A3260ACE75C1B0020841B002031
:1049E000541B0020241B00200000FA4590090020E1
:1049F0007C1B0020F0220020341B002068150020C2
:104A0000281B0020781B0020701B0020381B002072
:104A1000A41B002000000000501B0020581B002099
:104A2000981B0020901B002093ED007AD0ED007AB7
:104A3000DFF890C3DFF85CE3B4EEE77AF1EE10FA4A
:104A400040F1A580D2ED007AF5EEC07AF1EE10FAD1
:104A50000BDDDCED007ACA49FDEEE77AD1F8008083
:104A600017EE901A6439414512DCD2ED007AF5EE6A
:104A7000C07AF1EE10FA79D5DCED007AC049FDEE8E
:104A8000E77AD1F8008017EE901A643141456DDA6B
:104A9000BC49DFF834C3BC48D2ED005A9CED004A53
:104AA00093ED006AD1ED004AD0ED007AB748D2ED1F
:104AB000006AD0ED002A93ED005A91ED003A93ED93
:104AC000007AD1ED003A35EE435A66EEA26A37EE2F
:104AD000637A66EE856A65EE845A27EE667A76EE2C
:104AE000646AE5EEA67AF6EE006AE7EE267AFDEE57
:104AF000E77AC5ED007A92ED006ADCED006A92ED8E
:104B0000007A90ED005AD3ED007AD1ED005A27EEED
:104B1000057A77EEE57A002167EEC77AE6EE267A27
:104B2000DFED9B6AFDEEE77AC4ED007A92ED007A44
:104B3000D0ED007A974827EE677AC7EE267AFDEE29
:104B4000E77AC6ED007A0170D2ED007A2268F5EEC0
:104B5000C07AF1EE10FA06DD8A42BFF65EAC216043
:104B60008D4A31603CE6002AF9DC56E4DCED007A3F
:104B70008A49FDEEE77A0022C5ED007A22603260B4
:104B80004A6402681A6001238EF8003045E4DCEDC7
:104B9000007A8248FDEEE77A0022C5ED007A426491
:104BA000226032600A6000221A6001238EF8003011
:104BB0007B4A1378012B35E692F800E0BEF1010F35
:104BC0007FD1784ADFF8C0C1D2ED007A7148F5EEA6
:104BD000C07AF1EE10FA0BDDDCED007ADFF8A0E12F
:104BE000FDEEE77ADEF800E017EE908AF04512DC81
:104BF000D2ED007AF5EEC07AF1EE10FA52D5DCED86
:104C0000007ADFF87CE1FDEEE77ADEF800E017EEEF
:104C1000908AF04546DA6449DFF8B0C1D1ED007AF8
:104C2000624992ED006A9CED005AD3ED005A92ED74
:104C3000007A91ED004AD3ED004AD3ED006A27EEE9
:104C4000047AF8EEE77A27EE247A26EEC77A66EE43
:104C5000056AE6EEA57AF6EE006AE7EE267AFDEE44
:104C6000E77AC5ED007A92ED006ADCED006A92ED1C
:104C7000007AD1ED005AD3ED007A27EE257A67EE5F
:104C8000C77AE6EE267AFDEEE77AC4ED007AD2ED39
:104C9000007A91ED007A67EEC77AFDEEE77AC6ED0D
:104CA000007AA1E5DCED007AFDEEE77A0022C5EDA1
:104CB000007A226032600A6000221A6001230370C9
:104CC00076E7117801F0FF0200297FF4A6AB93ED9F
:104CD000007ADFED377A2F49B4EEE77AF1EE10FA79
:104CE0000ED5314BD3ED007AF8EEE77AFDEEE77A98
:104CF000C5ED007A2260326081F800C0FFF78DBBFD
:104D0000DFF8CCE0DEF800E0C5F800E022603260B9
:104D1000026000221A6081F800C049E70022226088
:104D2000326000221A60234B1A60234B1A60194B21
:104D300001223AE6B7F840301BB2022B69D140F6A7
:104D4000CC43A7F892321D4B1A68002A1C4A04DD96
:104D50002868D8F80010884207DC1968002939DA79
:104D60002868D8F80010884234DA0023A7F84030C9
:104D7000002313600F4A13600F4A1360D7E700BF88
:104D80005C1B0020841B0020501B0020241B0020E3
:104D90000000FA4590090020781B0020F022002036
:104DA00068150020281B0020381B00201C1B002039
:104DB0006F120339A01B0020741B0020001B002071
:104DC000801B0020541B0020A41B0020901B0020EF
:104DD0003C1B002057499FED587A01200860D2ED16
:104DE000007A564977EE877AC2ED007AD1ED007AE3
:104DF00093ED007AD2ED006AB8EEC77AF8EEE77A62
:104E0000E7EE267AFDEEE77AC5ED007A1B682360AF
:104E10008DE7B7F840301BB2012B7FF4FEAA484A59
:104E2000DFF810C11268DFF83C814648DFF838E14E
:104E3000B2F57A7FA5BF0023CCF80030CCF8003063
:104E4000C8F800304FF48043A7F892323E4A3F4BF7
:104E500093ED007AD2ED007AB4EEE77AF1EE10FA33
:104E600037D5D3ED007A9FED347A77EE877AC3EDAC
:104E7000007A93ED006AD2ED006A0268DEF80090D5
:104E8000DEF8003086EE267AA2EB090207EE902AC1
:104E9000F8EEE77A67EE877AFDEEE77A17EE902A6A
:104EA0001A442A60D8F800300A2203EBC30393FBAC
:104EB000F2F323600268DEF800309A422B680A6839
:104EC00012DD093B934212DC00232360CCF8003052
:104ED0000DE0D8F800300A2203EB430393FBF2F312
:104EE000236003682B60E5E709339342ECDA184B43
:104EF00001221A70D0ED007A164BF8EEE77AC3ED76
:104F0000007AD0ED007A144BF8EEE77AC3ED007A20
:104F1000FFF783BA2B600D4A002323603360002320
:104F200013600E4A13600E4A1360094B01221A7077
:104F3000FFF777BAFC1A00206F128339381B002064
:104F400058150020601B0020881B0020801B0020BB
:104F500090090020581B0020541B0020A01B00209B
:104F6000741B0020941B0020641B00202DE9F041DD
:104F7000384C638A1BB2012B6AD0B4F84820E38C0A
:104F800012B21BB29A420CDDE38CA4F84830B4F89C
:104F900048301BB2B3F5804FC4BF4FF48043A4F830
:104FA0004830B4F84820238D12B21BB29A4209DA75
:104FB000238DA4F84830B4F848301B0444BF0023C4
:104FC000A4F84830244B254E254F01221A70254B5A
:104FD000254A1D68156000221A6033683B60B4F8EA
:104FE00048301BB233602846FBF7C6FA00221F4B3D
:104FF000FBF756FCFBF722FE1D4B186030683A6841
:10500000D3F80080801AFBF7B7FA064640460F46F1
:10501000FBF7C4FA02460B4630463946FBF740FC24
:10502000FBF7C4FD134B144A1860196812689142CB
:10503000C8BF1A60196852428A42C8BF1A60B5F5E3
:10504000FA7FA8BFB4F84030BDE8F041FDF768BB77
:10505000BDE8F081C80E0020AC150020601B0020C8
:10506000641B002058150020541500200040AF405C
:10507000881B0020941B00204C150020401A00289B
:10508000B8BF40422028D4BF002001207047000054
:1050900008B50B4B5A6942F008025A611A6842F08F
:1050A00008021A605A6842F008025A600122092078
:1050B000114603F0CBFB0920BDE8084003F0FABB22
:1050C0000004014030B510229DB0002500210DEBF9
:1050D000020006F080F91C22294608A8CDE90155F6
:1050E000039506F078F9342229460FA806F073F9E3
:1050F0005B4C5C4B4FF0200CC4E900354FF452631D
:10510000C4E902C320468023C4E90455A36103F027
:1051100099FD08B1FCF74AF94FF4805304A95048AF
:10512000049303F027FF08B1FCF740F94C4803F063
:10513000E9FD08B1FCF73AF9494803F0B3FD08B1BD
:10514000FCF734F970200023CDE9010301A944489C
:10515000039304F0C3F808B1FCF728F96023414D2C
:105160000893EB6A3E485B080022099308A90423D0
:10517000CDE90A22CDE90C320E9203F06EFE08B1A1
:10518000FCF714F9EB6A36489B08042208A9099336
:1051900003F063FE08B1FCF709F9324B3048DB6AD3
:1051A00008225B0808A9099303F057FE08B1FCF731
:1051B000FDF8702140F61F53CDE908130C2208A911
:1051C000274803F015FE08B1FCF7F0F800234FF470
:1051D0000062CDE90F231422CDE912234FF40052CF
:1051E000CDE914230FA94FF000721D481193CDE9AA
:1051F0001633CDE91823CDE91A3304F0B5F808B118
:10520000FCF7D4F8164801F077FE0021144803F0AB
:10521000F9FF0421124803F0F5FF0821104803F0BC
:10522000F1FF0C210E4803F0EDFF00210C4804F0C3
:1052300053F804210A4804F04FF80821084804F004
:105240004BF80C21064804F047F82268064813681A
:1052500043F00103136004F0A5FE1DB030BD00BF94
:1052600094230020002C0140E01E002008B5FFF729
:105270000FFFBDE80840FFF725BF00000B4A536948
:1052800023F4805353610A4B0022A3F80222094BF6
:105290001A80094BDA639A635A6341F288321A62C0
:1052A0005A6C22F400425A64704700BF0004004860
:1052B000C80E002050150020002C01402DE9F041BF
:1052C0000D1E0646744BC0F2DE807449B1F9001021
:1052D000A94200F3D980B2F53D6F01F1FF3528DC1A
:1052E00022EAE274002D27DBB3F90000A84223DD97
:1052F000ADB2401B80B200F05BFE2146FAF79FFF83
:105300008046284600F054FE2146FAF798FFC8F57B
:105310003D631B1A5B10C118614808EB01020124B0
:105320000480F36345F25553B16372633362BDE8A1
:10533000F0814FF43D64D5E7B3F90000594BA84222
:10534000B3F900C01ADCAC4518DD2D1AADB2401B14
:1053500080B200F02DFE2146FAF771FF074628467D
:1053600000F026FE2146FAF76AFFC7F53D631B1AD7
:105370005B10FA18811802244948D1E74A4BAC4522
:10538000B3F900701BDCAF4219DDA5EB0C05ADB223
:10539000401B80B200F00CFE2146FAF750FF074692
:1053A000284600F005FE2146FAF749FFC7F53D62A1
:1053B000121A52108318F91839480324B0E73B4BEE
:1053C000AF42B3F900201ADCAA4218DDEF1BBFB2CE
:1053D000C01B80B200F0ECFD2146FAF730FF054615
:1053E000384600F0E5FD2146FAF729FFC5F53D6294
:1053F000121A5210A91843180424294890E72C4B7C
:10540000AA42B3F900301ADCAB421ADDAD1AADB2D4
:10541000401B80B200F0CCFD2146FAF710FF074692
:10542000284600F0C5FD2146FAF709FFC7F53D61A2
:10543000091A49104218BB181948052470E7AB42F5
:105440001DDC164AB2F90020AA4218DDEB1A9DB203
:10545000401B80B200F0ACFD2146FAF7F0FE074693
:10546000284600F0A5FD2146FAF7E9FEC7F53D61A3
:10547000091A49107B18C2180624094850E700236E
:1054800019461A464DE70025B2F53D6F7FF728AF64
:105490004FF43D6428E700BF980B0020940B0020D8
:1054A00024150020820B0020860B00208A0B002090
:1054B000900B00201346B2F53D6F10B414460E4A0F
:1054C000A8BF4FF43D639A42B8BF1A46002CBEBF36
:1054D0000A4BB3F90030C918094BB3F90030B8BF13
:1054E00052428B4204DCC91A5DF8044BFFF7E6BE5A
:1054F0000029B8BFC918F7E730F4FFFF860B00207A
:10550000940B00200A4A0B48536943F480535361BB
:10551000094A0123A2F80232084A1380436C43F47B
:1055200000434364064B00221968FFF7C3BF00BF66
:1055300000040048002C0140C80E00205015002037
:10554000081500202749284BB1F84820DFED276ACD
:10555000274810B41A80B1F860205A80B1F84C2066
:105560009A80B1F85C20DA80B1F850201A81214A83
:105570000088D2ED1D7A5882FDEEE77A1E481F4C56
:105580000088988217EE902A5A811D4AB1F854007B
:1055900092ED007AD88227EE267AB1F85600188369
:1055A000BDEEC77A206817EE102A9A81154AD2ED0F
:1055B000007A67EEA67A0014FDEEE77A588317EEBC
:1055C000902A2068B1F85210D9830F49DA81988364
:1055D000002220201A82086038215DF8044B00F078
:1055E00007BD00BFC80E0020B01B002000803B4557
:1055F000B8270020D027002026150020500A0020C0
:10560000841A0020881A0020AC1B0020144A154B75
:10561000B2F84C101980B2F85C105980B2F85010F2
:105620009980B2F84210D980B2F84E101981B2F8C0
:1056300052105981B2F8541099810B49B2F8562092
:10564000DA810A6812141A820A685A82074A128892
:105650009A82074A162010603C21002200F0C8BC44
:10566000C80E0020B01B0020500A00202615002084
:10567000AC1B00200E4A0F4BB2F84C101980B2F848
:1056800064105980B2F84E109980B2F85010D98049
:10569000B2F84610198108490988B2F854209A8155
:1056A000064A59810E2010603921002200F0A0BC6A
:1056B000C80E0020B01B002026150020AC1B0020C7
:1056C0002DE9F041234C244EDFF890E00A46B4F86F
:1056D000C0120023090448BFA4F8C0323360B4F8F4
:1056E000C0321BB20F2BC4BF0F23A4F8C03200235B
:1056F0001946B4F8C0C21FFA83F84FEA48050FFAFA
:105700008CFCADB29C452FB208DC37600146134BD0
:1057100005F0FE00BDE8F04100F06ABC03F2611341
:1057200034F813502DB2B5F5007F0FDA34F813506A
:105730002DB2002D0ADD34F813502DB234F8153097
:105740002EF8073008F101031BB2D2E72EF807103C
:10575000F8E700BFC80E0020AC1B0020B01B0020E3
:10576000DFF894C02DE9F041BCF84860BCF84C501B
:10577000DFF888E04FF4FA6416FB04F615FB04F535
:10578000BCF84E400FFA84F8194C00272468CEF874
:10579000007024684FF4804304FB08F496FBF3F692
:1057A00095FBF3F594FBF3F4124B1A70BCF85620FA
:1057B0005E70DD7046F3072645F307255A719C712C
:1057C000BCF854205A7244F30724DC719E700F24F5
:1057D0001D711F729F72DF721F735F739F73CEF80C
:1057E00000400A4601462046BDE8F04100F09ABC60
:1057F00064090020B01B0020C80E0020AC1B002054
:105800002DE9F04F91462F4A2F4BD2F800E02F4E52
:10581000DFF8BCC000251D60AA464FF480484D4506
:105820001C6807DB0A46294B0146E0B2BDE8F04F91
:1058300000F078BC4F19022F06D1BCF80C2032556D
:10584000671C1F600135EAE70C2F02D1BCF80E205F
:10585000F5E71F2FF6D0202F04F101020CD1BCF880
:1058600020700FFA87FBDEF8007007FB0BF797FB41
:10587000F8F71A603755E5E7212F0BD1BCF82070F7
:105880000FFA87FBDEF8007007FB0BF797FBF8F7C2
:105890003F12EEE7622F07D1BCF81C701A603FB2CE
:1058A00007EB87077F00E5E7632F07D1BCF81C7083
:1058B0001A603FB207EB8707FF11DBE71A6006F8B3
:1058C00004A0BFE764090020AC1B0020B01B00202F
:1058D000C80E002038B56C4D6C4C2B680133FA2B88
:1058E00042DC2B606A4A1368F92B9CBF01331360BA
:1058F000FCF71CFD674B68491B780868012B01BF4A
:10590000B4F854301BB243F01003A4F85430634B86
:105910001B78012B01BFB4F854301BB243F0800355
:10592000A4F854305E4B1B78012B01BFB4F85430FF
:105930001BB243F04003A4F85430E28BA38B12B2A5
:105940001BB29A42C4BFA38BE383B4F85620A38B47
:1059500012B200FA83F39A42524B3FDD1A881D2A95
:105960001DD801321A802BE0B4F8543003F005033F
:10597000A4F85430B4F8543000211BB22960002B35
:10598000B0D0494A13680133022B136002DCA4F83B
:105990005410A7E7032B1CBF03231360A2E71F22A9
:1059A0001A80E38BA28B1BB212B29B1A0B60B4F865
:1059B00054301BB243F00203A4F8543000232B6090
:1059C000B4F85620E38B12B21BB29A42374B31DD4A
:1059D0001A681D2A05DC01321A600FE000220A60F5
:1059E000C0E71F221A60B4F854301BB26FEA434379
:1059F0006FEA5343A4F8543000232B60238C1BB26E
:105A0000B3F5804FC4BF4FF480432384B4F84E30C5
:105A100013F4004FB4F84E30228C1BB218BF5B4217
:105A200012B29A42224B2DDA1A88952A04D80132F2
:105A30001A8021E00022CFE797221A8000232B60F2
:105A4000B4F8503013F4004FB4F850301BB214D0F7
:105A500013F1C70FB4BF0023012333B1B4F854309E
:105A60001BB243F00103A4F85430B4F854301BB215
:105A700043F00403A4F8543038BDC72BCCBF002337
:105A80000123EAE70022D3E7141C0020C80E0020FF
:105A9000101C0020AB0B00201C1C0020AA0B0020B7
:105AA000A90B00200A1C00200C1C0020041C002054
:105AB000081C0020034A0023A2F85430024A136055
:105AC000FCF72EBCC80E00200C1C0020144BB3F8B1
:105AD000042212B2032A22D1B3F84C10B3F88C225C
